:020000040800F2
:10000000100B0020112400083502000837020008F8
:100010003B0200083F020008430200080000000005
:10002000000000000000000000000000470200087F
:1000300049020008000000004B0200084D020008C1
:100040002B2400082B2400082B2400082B24000854
:100050002B2400082B2400082B2400082B24000844
:100060002B2400082B2400082B2400082B24000834
:100070002B2400082B2400082B2400082B24000824
:100080002B2400082B2400082B2400082B24000814
:100090002B2400082B2400082B2400082B24000804
:1000A0002B2400082B2400082B2400082B240008F4
:1000B0002B2400082B2400082B2400082B240008E4
:1000C0002B2400082B2400082B2400082B240008D4
:1000D0002B240008912500089F2500082B240008E8
:1000E0002B2400082B2400082B240008DFF80CD058
:1000F00002F088FC0048004701010008100B0020B6
:10010000002402F06BFA02F0D3FA00F0C7F94FF4C2
:10011000165002F09EF94FF4E13002F0E9F91FA009
:1001200000F014FA22A000F011FA00F035FA24A031
:1001300000F00CFA00F093FA25A000F007FA00F0A6
:10014000E9FC29A000F002FA2BA000F0EEFD00F07F
:100150000EFAC82002F07FFA00F0F4F92BA002F0AA
:10016000ADFA19E0641C40F6B830844205DB2AA0E1
:1001700000F0ECF902F02BFB002402F0D1FB64202C
:1001800002F069FA2A48006808B9012000E000205E
:100190002749086000F0D6F9E4E700007561727441
:1001A0002D696E69742D4F4B2E2E2E0D0A00000006
:1001B0006F70656E2D6D6332302E2E2E0D0A00008D
:1001C00047534D5F496E69742E2E2E0D0A000000B4
:1001D0004765745F4C425353746174696F6E526526
:1001E000732E2E2E0D0A00005443505F4155544883
:1001F0002E2E2E0D0A0000005443502D4155544818
:100200002D5057442D3132333435360031323334AA
:100210003536373800000000504F53545F4C6F6E36
:10022000674C6174697374722E2E2E0D0A000000E3
:1002300080012142704700BFFEE700BFFEE700BF1C
:10024000FEE700BFFEE77047704770477047000049
:1002500010B501F0BFFB012001F041FC00BF2120DF
:1002600001F0FBFB0028FAD0102001F099FD0220DC
:1002700001F082FD002001F052FC002001F061FC41
:100280004FF4806001F054FC4FF46011002001F045
:1002900029FC012001F032FC00BF392001F0DDFB18
:1002A0000028FAD0022001F02CFC00BF01F032FC43
:1002B0000828FBD101211D2001F0FAFC10BD0CB56E
:1002C0000020019000906C48006840F480306A493A
:1002D000086000BF6848006800F400300090019892
:1002E000401C0190009818B90198B0F5A06FF1D1A9
:1002F0006148006800F4003010B10120009001E076
:10030000002000900098012843D15C48006840F02C
:1003100010005A4908600846006820F00300086091
:100320000846006840F0020008605348406852499F
:1003300048600846406848600846406840F480606D
:1003400048600846406820F47C10486008464068D1
:1003500040F4E81048600846006840F0807008608B
:1003600000BF4548006800F000700028F9D04248FE
:10037000406820F00300404948600846406840F06B
:100380000200486000BF3C48406800F00C000828AC
:10039000F9D10CBD10B5FFF792FF10BD10B536486E
:1003A000006840F00100344908600846406834495C
:1003B00008403149486008460068324908402E49E3
:1003C00008600846006820F48020086008464068FD
:1003D00020F4FE0048604FF41F008860FFF7DAFF4A
:1003E0004FF000602849086010BD10B500210020C2
:1003F0000022214B5B6803F00C0121B1042906D0D7
:10040000082928D107E0214B214C236027E01F4B0E
:100410001F4C236023E0184B5B6803F47010164BED
:100420005B6803F48032022303EB904022B9194B3E
:100430004343174C23600DE00F4B5B6803F400331C
:1004400023B1144B4343124C236003E00F4B43434F
:100450000F4C236003E00D4B0D4C236000BF00BF29
:10046000054B5B68C3F303130B4CE15C084B1B6843
:10047000CB40074C236010BD00100240002002401A
:100480000000FFF8FFFFF6FE08ED00E000127A0022
:100490000000002000093D000400002008B50121F3
:1004A0000C2001F005FC0120ADF8000010208DF8B3
:1004B000030003208DF802006946174800F018FF7A
:1004C0000121154800F0C1FF0120ADF80000102007
:1004D0008DF8030003208DF8020069460F4800F0F4
:1004E00007FF1020ADF800008DF8030003208DF801
:1004F00002006946084800F0FBFE2020ADF800002D
:1005000010208DF8030003208DF802006946024890
:1005100000F0EEFE08BD000000080140000C0140A4
:1005200070B505460C4645F2555001F02FF82846A7
:1005300001F02FF8204601F02FF801F030F801F01B
:1005400033F870BD10B501F02AF810BD0BE000BF04
:10055000FE49098801F040010029F9D00178FB4AE1
:10056000121D1180401C01780029F0D1704710B590
:10057000F748FFF7EBFF002404E00020F44908559A
:10058000601CC4B2F34800688442F6DB0020F149E5
:100590000860FFF7D7FF10BD10B5EFA002F044FAD6
:1005A0004FF4967002F057F8EDA1E94802F0FAF91D
:1005B0000446E9A002F038FA4FF4967002F04BF8C6
:1005C000E7A1E34802F0EEF90446FFF7BBFF84B968
:1005D0000120E44908604FF4967002F03CF84FF4B3
:1005E000967002F038F80020DF49C1F89401FFF757
:1005F000A9FFD9A002F018FA4FF4967002F02BF878
:10060000FFF7A0FFD6A1D24802F0CCF9044617E0CC
:10061000FFF7ADFFD0A002F007FA4FF4967002F09A
:100620001AF8D0481438006808B9012000E000200A
:10063000CC4914390860CAA1C54802F0B3F9044690
:10064000002CE5D00020C74914390860FFF77AFF75
:100650004FF4967001F0FFFFFFF789FF10BD10B552
:10066000BDA002F0E1F94FF4FA7001F0F4FFBAA076
:1006700002F0DAF94FF4FA7001F0EDFFB8A1B448D6
:1006800002F090F9B94908600EE0FFF770FFB2A0E0
:1006900002F0CAF94FF4FA7001F0DDFFB0A1AC48E6
:1006A00002F080F9B1490860B04800680028ECD039
:1006B000AFA002F0B9F94FF4FA7001F0CCFFFFF7E8
:1006C00056FFADA002F0B0F94FF4FA7001F0C3FF8D
:1006D000ACA002F0A9F94FF4FA7001F0BCFFACA194
:1006E0009B4802F05FF9A14908600EE0FFF73FFF69
:1006F000A4A002F099F94FF4FA7001F0ACFFA4A1A4
:10070000934802F04FF9994908609848006800281A
:10071000ECD0FFF72CFFA2A002F086F94FF4FA709C
:1007200001F099FFA1A18A4802F03CF98F490860C5
:100730000EE0FFF71CFF9AA002F076F94FF4FA7072
:1007400001F089FF99A1824802F02CF987490860DD
:10075000864800680028ECD0FFF709FF96A002F059
:1007600063F94FF4FA7001F076FF97A1784802F030
:1007700019F97E4908600EE0FFF7F9FE8EA002F03D
:1007800053F94FF4FA7001F066FF8FA1704802F040
:1007900009F976490860754800680028ECD0FFF731
:1007A000E6FE8CA002F040F94FF4FA7001F053FF1E
:1007B0008CA002F039F94FF4FA7001F04CFF68A1F7
:1007C000634802F0EFF8694908600EE0FFF7CFFEDA
:1007D00084A002F029F94FF4FA7001F03CFF60A107
:1007E0005B4802F0DFF86149086060480068002853
:1007F000ECD0FFF7BCFE7FA002F016F94FF4FA70C0
:1008000001F029FF56A1524802F0CCF85749086080
:100810000EE0FFF7ACFE77A002F006F94FF4FA7095
:1008200001F019FF4EA14A4802F0BCF84F49086098
:100830004E4800680028ECD0FFF799FE71A002F046
:10084000F3F84FF4FA7001F006FF45A1404802F0BA
:10085000A9F8464908600EE0FFF789FE69A002F09A
:10086000E3F84FF4FA7001F0F6FE3DA1384802F0CB
:1008700099F83E4908603D4800680028ECD0FFF731
:1008800076FE66A002F0D0F84FF4FA7001F0E3FEB5
:1008900033A12F4802F086F8344908600EE0FFF7D4
:1008A00066FE5EA002F0C0F84FF4FA7001F0D3FECD
:1008B0002BA1274802F076F82C4908602B480068E5
:1008C0000028ECD0FFF753FE58A002F0ADF84FF42B
:1008D000FA7001F0C0FE58A11D4802F063F82349E8
:1008E00008600EE0FFF743FE50A002F09DF84FF4C1
:1008F000FA7001F0B0FE50A1154802F053F81B4900
:1009000008601A4800680028ECD04EA002F08CF86D
:100910004FF4FA7001F09FFE11A10D4802F042F869
:10092000124908600EE0FFF722FE46A002F07CF8B4
:100930004FF4FA7001F08FFE09A1054802F032F879
:100940000A49086009480068002881E00038014031
:10095000D80000203C00002041540D0A0000000097
:100960004F4B00009401214200002142140000205E
:10097000415445310D0A000041542B4353510D0A97
:100980000000000041542B4350494E3F0D0A000027
:100990002B4350494E3A2052454144590000000033
:1009A0002041542B435245473F0D0A002B435245EB
:1009B000473A20302C3100002041542B4347524508
:1009C000473F0D0A000000002B43475245473A209D
:1009D000302C310041542B5149636C6F73650D0A03
:1009E0000000000041542B514944454143540D0A35
:1009F0000000000041542B51494647434E543D30BE
:100A00000D0A000041542B5149435347503D312CAE
:100A100022434D4E4554220D0A00000041542B51F3
:100A2000495245474150500D0A00000041542B5196
:100A300049535441540D0A004950205354415254D3
:100A40000000000041542B51494143540D0A00005D
:100A50003FF469AFFFF78BFDFDA001F0E5FF4FF418
:100A6000FA7001F0F8FDAFF20811FD4801F09AFFAD
:100A7000FC4908600FE0FFF77AFDF5A001F0D4FF14
:100A80004FF4FA7001F0E7FDAFF22C11F44801F0D9
:100A900089FFF4490860F34800680028EBD0FFF7AD
:100AA00066FDF1A001F0C0FF4FF4FA7001F0D3FD34
:100AB000F8A1EB4801F076FFEA490860F8A1E848A0
:100AC00001F070FFFA49086010E0F2A1E44801F07B
:100AD00069FFE4490860F2A1E14801F063FFF449CD
:100AE0000860642001F0B7FDFFF72CFDDD480068C9
:100AF00018B9EF4800680028E7D04FF4FA7001F009
:100B0000AAFD4FF4FA7001F0A6FDFFF71BFDFFF7F9
:100B10002EFD10BD70B500240025E6A001F084FF75
:100B20004FF4967001F097FDDCA1CD4801F03AFF3B
:100B3000CC49086005E0D9A1C94801F033FFC94993
:100B40000860C84800680028F5D0FFF710FDDDA058
:100B500001F06AFF4FF4967001F07DFDCFA1C0480F
:100B600001F020FFBF49086005E0CCA1BC4801F0BE
:100B700019FFBC490860BB4800680028F5D0D4A123
:100B8000B74801F00FFFB749086008460068002821
:100B90004AD0D1A1B24801F005FFB2490860084629
:100BA0000068C8B10024002514E0AE480168601C4C
:100BB000085C222803D10020C84948550BE0A94809
:100BC0000168601C0A5C2846691CCDB2C3490A54FE
:100BD000601CC4B2E9E700BFA24909682144881C2F
:100BE000BDA101F0DFFE9F49086008460068D8B14A
:100BF0000024002516E09B480168601C085C222840
:100C000004D10021B5480C3041550CE095480168ED
:100C1000601C0A5C2846691CCDB2B0490C310A54EC
:100C2000601CC4B2E7E700BFFFF7A1FCAB4800F0CF
:100C3000B8FAAA49488108464289A9A101F004FFEF
:100C4000A6480C3000F0ADFAA449C8820846C28A12
:100C5000A3A10C3001F0F8FE70BD70B54FF496758D
:100C60000024A0A001F0E0FE4FF4FA7001F0F3FCC4
:100C70008AA17B4801F096FE7A4908609DA17848D8
:100C800001F090FE9E49086000BF9D480068002862
:100C9000FBD11AE0FFF76BFC9AA0FFF757FC91A07D
:100CA00001F0C2FE4FF4FA7001F0D5FC7BA16C4854
:100CB00001F078FE6B4908606D1E002D05DC96A0E2
:100CC000FFF744FC00206749086066480068002878
:100CD000E0D0002D1CDD95A1614801F063FE614963
:100CE00008600846006898B1002400BF5D480168AC
:100CF000A01C085C0D2806D05A480168A01C085C9E
:100D00008B49085500E002E0601CC4B2EEE700BF6A
:100D10005E208749085587A001F038FE0646FFF798
:100D200015FC4EA0FFF712FC70BD70B50446FF2500
:100D3000FFF71DFC204601F047FE18B981A0FFF720
:100D400005FC70BDFFF713FC84A001F06DFE64206C
:100D500001F081FC204601F067FE642001F07BFC7D
:100D60001A21814800F06EFD00BF40217E4800F04E
:100D7000D7FD0028F9D0642001F06DFC7BA1384834
:100D800001F010FE3749086008E078A1344801F00E
:100D900009FE344908600A2001F05DFC3148006812
:100DA0000028F2D0642001F056FCFFF7E0FBFFF7CB
:100DB000C9FB00BFC5E710B5AFF2644001F034FED7
:100DC0004FF4FA7001F047FCAFF2744001F02CFED2
:100DD0004FF4FA7001F03FFC30A1214801F0E2FD30
:100DE000204908600FE0FFF7C2FBAFF2944001F02A
:100DF0001BFE4FF4FA7001F02EFC28A1184801F0F8
:100E0000D1FD18490860174800680028EBD0AFF200
:100E1000A04001F009FE57A001F006FE4FF4FA7061
:100E200001F019FC1DA10E4801F0BCFD0D49086040
:100E300054A001F0F9FD4FF4FA7001F00CFC57A03A
:100E400001F0F2FD4FF4FA7001F005FC10BD000056
:100E500041542B5149444E5349503D300D0A000036
:100E6000D80000201400002041542B51494F504518
:100E70004E3D22544350222C223130362E31342E16
:100E80003231312E3436222C2238353830220D0AB8
:100E900000000000434F4E4E454354204F4B00008E
:100EA000414C524541445920434F4E4E4543540016
:100EB0001800002041542B43475245473D320D0A4C
:100EC0000000000041542B43475245473F0D0A00A4
:100ED0002B43475245473A0022000000C000002043
:100EE0002564000041542B5143454C4C4C4F433D2D
:100EF000310D0A002B434D45204552524F52000000
:100F00001C0000205748494C455F5143454C4C4C10
:100F10004F432E2E2E0D0A005143454C4C4C4F434F
:100F20005F4641494C2E2E2E0D0A00003A0000006B
:100F30005C0000204C6F6E674C6174697374723A88
:100F40000000000053656E645F53747228454D5075
:100F50005459292E2E2E0D0A0000000041542B5109
:100F60004953454E440D0A000044004053454E4449
:100F7000204F4B0061742B7162747077723D310D9C
:100F80000A00000041542B5142544E414D453D2230
:100F90004D4332305F4254220D0A000041542B5120
:100FA0004254564953423D310D0A000010B53CA150
:100FB0003F4801F0F7FC3F4908600846006840B12F
:100FC0003DA001F031FD4FF4FA7001F044FBFFF752
:100FD000CEFA3EA1364801F0E5FC364908600846E5
:100FE000006840B13DA001F01FFD4FF4FA7001F020
:100FF00032FBFFF7BCFA3DA12D4801F0D3FC2D498F
:1010000008600846006810B100203B4908603BA119
:10101000274801F0C7FC27490860084600680028F7
:1010200027D008460068807936490870FFF79FFA94
:101030003448017834A001F0F7FCC82001F00BFB24
:1010400037A11B4801F0AEFC1A4908600846006849
:1010500060B108460068407B344908701548006854
:10106000807B487013480068C07B8870002022494C
:1010700008602448007888B1224801782CA001F04B
:10108000D3FC642001F0E7FA2EA001F0CDFC4FF470
:10109000FA7001F0E0FA00201749086010BD000066
:1010A0002B514254494E443A202270616972220009
:1010B000D80000201400002041542B5142545041CC
:1010C0004952434E463D310D0A0000002B51425417
:1010D000494E443A2022636F6E6E220041542B51D8
:1010E0004254414350543D310D0A00002B514254AB
:1010F000414350543A0000003C0000207265637682
:10110000000000002000002041542B515350505249
:101110004541443D25632C313530300D0A00000037
:10112000515350505245414400000000210000201E
:1011300041542B5153505053454E443D25632C315F
:10114000300D0A0053656E64313233340D0A0000ED
:101150000246012309B90120704701E05343491EAB
:101160000029FBDC1846F7E70146012014E00A7865
:10117000302A0EDB0A78392A02DD0A78412A08DB98
:101180000A78462A02DD0A78612A02DB0A78662A92
:1011900001DD002003E0491C0A78002AE7D100BFE6
:1011A00070472DE9F0410546002600272846FFF745
:1011B000DBFF002835D0284601F006FC441E2DE058
:1011C000285D30280ADB285D392807DC39461020E5
:1011D000FFF7BEFF295D303901FB0066285D6128FD
:1011E0000BDB285D662808DC39461020FFF7B0FFCE
:1011F0000146285D573800FB0166285D41280BDB5E
:10120000285D462808DC39461020FFF7A1FF01467B
:10121000285D373800FB0166641E7F1C002CCFDA86
:1012200003E04FF0FF30BDE8F0813046FBE70000FF
:1012300010B50446CC48844208D10121042000F0B6
:1012400051FD0021042000F04DFD46E0C7488442D6
:1012500008D10121082000F045FD0021082000F000
:1012600041FD3AE0C248844208D10121102000F03B
:1012700039FD0021102000F035FD2EE0BD488442EC
:1012800008D10121202000F02DFD0021202000F0B8
:1012900029FD22E0B848844208D10121402000F015
:1012A00021FD0021402000F01DFD16E0B3488442DE
:1012B00008D10121802000F015FD0021802000F0E0
:1012C00011FD0AE0AE48844207D10121801500F0EB
:1012D00009FD0021A01500F005FD10BD10B501218C
:1012E000084600F0FFFC0021012000F0FBFC10BDCF
:1012F0002DE9F041024600250026002000230024AD
:10130000002791F803C00CF00F0591F803C00CF012
:10131000100CBCF1000F03D091F802C04CEA050597
:1013200091F800C0BCF1000F31D0146800202BE010
:101330004FF0010C0CFA00F3B1F800C00CEA030600
:101340009E4220D183004FF00F0C0CFA03F7BC43F0
:1013500005FA03FC4CEA040491F803C0BCF1280F21
:1013600006D14FF0010C0CFA00FCC2F814C00AE0E0
:1013700091F803C0BCF1480F05D14FF0010C0CFAF5
:1013800000FCC2F810C0401C0828D1D31460B1F88A
:1013900000C0BCF1FF0F34DD546800202EE000F1E6
:1013A000080C4FF0010808FA0CF3B1F800C00CEA81
:1013B00003069E4221D183004FF00F0C0CFA03F775
:1013C000BC4305FA03FC4CEA040491F803C0BCF1E9
:1013D000280F05D100F1080C08FA0CF8C2F81480A7
:1013E00091F803C0BCF1480F07D100F1080C4FF091
:1013F000010808FA0CF8C2F81080401C0828CED367
:101400005460BDE8F0814FF6FF71018002218170C8
:101410000421C17070470246002093680B400BB155
:10142000012000E0002070470146886880B27047C4
:1014300002460020D3680B400BB1012000E00020E1
:1014400070470146C86880B27047016170474161CA
:1014500070470AB1016100E041617047C1607047A7
:101460004FF480320A4382618161826182698269BC
:10147000704702460020434B18684FF680731840AF
:1014800040EA021008433F4B186070473E49C8616C
:101490007047F0B50A46002300240021002500F023
:1014A0000046B6F1004F02D1364EF16901E0354EEB
:1014B0007168C0F3034583B200F44016B6F5401FCF
:1014C00008D121F070612F4E766826F070662D4F9E
:1014D0007E6012E000F48016B6F5801F06D1032668
:1014E00006FA05F4A14341F0706106E0460D3601AD
:1014F00003FA06F6B14341F0706122B1460D3601A0
:1015000003FA06F6314300F00046B6F1004F02D16F
:101510001C4EF16101E01B4E7160F0BD30B5002240
:101520008B071C0F0F2303FA04F2164B08338C10A1
:1015300053F824309343134C08348D1044F825306D
:1015400023468C1053F824308C07240F00FA04F43F
:1015500023430C4C08348D1044F8253030BD0A4923
:10156000DC3108607047000000080140000C0140B9
:10157000001001400014014000180140001C01400F
:101580000020014000000140000020420E49086098
:1015900070470D49486070470B49886070474AF6AC
:1015A000AA200949086070474CF6CC4006490860FB
:1015B000704701460020044AD2680A400AB101205F
:1015C00000E00020704700000030004010B50446E5
:1015D000FB48844209D10121880300F083FB0021EC
:1015E0004FF4804000F07EFB32E0F648844209D19F
:1015F0000121480400F083FB00214FF4003000F08B
:101600007EFB25E0F048844209D10121880400F0E6
:1016100076FB00214FF4802000F071FB18E0EB48CE
:10162000844209D10121C80400F069FB00214FF474
:10163000002000F064FB0BE0E548844208D1012162
:10164000080500F05CFB00214FF4801000F057FB10
:1016500010BD2DE9F04786B005460E460024A2468F
:1016600000BFA1460027B08900B100BF2F462C8AD9
:101670004CF6FF700440F08804432C82AC894EF68F
:10168000F3100440B088318908437189084304434A
:10169000AC81AC8A4FF6FF400440B0890443AC8271
:1016A00001A800F098FAC648874202D1DDF810A0E0
:1016B00001E0DDF80CA0A88900F4004040B10AEB7D
:1016C000CA0000EB0A1031684900B0FBF1F807E0EE
:1016D0000AEBCA0000EB0A1031688900B0FBF1F890
:1016E0006420B8FBF0F004012009642101FB10899B
:1016F000A88900F4004040B1322000EBC900B0FBE3
:10170000F1F000F00700044308E0322000EB09107C
:101710006421B0FBF1F000F00F0004432C8106B00F
:10172000BDE8F0874FF41651016000218180C1802F
:1017300001810C21418100218181704710B5024651
:101740000020108A4FF2FF0318400B884C88234377
:101750008C882343CC8823431843108210BD00217A
:10176000018041808180C180704721B1828942F42B
:101770000052828104E082894DF6FF731A40828113
:101780007047F0B50346002400260025002040F6EF
:101790006A17B94200D100BF1846C1F3421401F0E4
:1017A0001F06012707FA06F5012C01D10C3004E0D1
:1017B000022C01D1103000E014301AB107682F4319
:1017C000076002E00768AF430760F0BD1AB1838A83
:1017D0000B43838202E0838A8B4383827047028AB1
:1017E0004FF6F0731A400282028A0A43028270475F
:1017F00082894FF2FF731A40828182890A43828173
:10180000704721B1828942F00202828104E082891C
:101810004FF6FD731A4082817047028A4FF6DF73DC
:101820001A400282028A0A430282704721B1028A68
:1018300042F48042028204E0028A4BF6FF731A40AF
:1018400002827047C1F3080282807047014688888F
:10185000C0F308007047818941F001018181704720
:10186000028BD2B20283028B42EA012202837047CA
:10187000028B02F47F420283028B0A430283704789
:1018800021B1828A42F02002828204E0828A4FF6ED
:10189000DF731A408282704721B1828A42F01002BF
:1018A000828204E0828A4FF6EF731A408282704788
:1018B00021B1828A42F00802828204E0828A4FF6D5
:1018C000F7731A408282704721B1828942F4004244
:1018D000828103E08289C2F30E028281704721B1C6
:1018E000828A42F40062828204E0828A4FF2FF73AD
:1018F0001A4082827047828A4FF6FB731A408282B6
:10190000828A0A438282704721B1828A42F00202AF
:10191000828204E0828A4FF6FD731A408282704709
:1019200002460020B1F5007F00D100BF13880B40B4
:101930000BB1012000E00020704701F40072B2F505
:10194000007F00D100BFCA430280704770B50246D5
:10195000002400230025002040F66A16B14200D181
:1019600000BFC1F3421501F01F03012606FA03F37D
:10197000012D02D19689334006E0022D02D1168A4C
:10198000334001E0968A33400C12012606FA04F433
:101990001688344013B10CB1012000E0002070BD66
:1019A00010B50022002340F66A14A14200D100BF06
:1019B0000A1201249440A3B2DC43048010BD00004D
:1019C000003801400044004000480040004C004006
:1019D00000500040DF48006840F00100DD49086029
:1019E00008464068DC490840DA4948600846006813
:1019F000DA490840D74908600846006820F480208A
:101A000008600846406820F4FE0048604FF41F005C
:101A100088607047CF49096821F48031CD4A116050
:101A20001146096821F480211160B0F5803F03D090
:101A3000B0F5802F0ED106E0C649096841F4803127
:101A4000C44A116007E0C349096841F4A021C14AB2
:101A5000116000E000BF00BF704710B501460022D2
:101A6000002300204A11012A02D1BA4C236806E063
:101A7000022A02D1B74C236A01E0B64C636A01F036
:101A80001F02012494401C400CB1012000E0002002
:101A900010BD38B5002000900024002500BF312083
:101AA000FFF7DBFF05460098401C00900098B0F55A
:101AB000A06F01D0002DF2D03120FFF7CEFF08B18A
:101AC000012400E00024204638BD01460020A14A40
:101AD000106820F0F80040EAC10010607047A0498B
:101AE00008607047024600209A4B586820F47C102A
:101AF00042EA01031843974B5860704798490866BB
:101B0000704701460020934A506820F003000843C4
:101B1000506070478F48406800F00C0070470146E5
:101B200000208C4A506820F0F00008435060704755
:101B300001460020874A506820F4E0600843506066
:101B4000704701460020834A506820F4605040EA04
:101B5000C1005060704729B17E4A527A02437D4BE2
:101B60005A7204E07B4A527A82437A4B5A72704727
:101B70007B49D8310860704701460020754A50689B
:101B800020F440400843506070470021714A2032E1
:101B90001170704A82F82010012802D004280AD15E
:101BA00004E001216B4A2032117005E00521694AE9
:101BB0002032117000E000BF00BF70476949086023
:101BC00070476449096A0143624A11627047654976
:101BD00044390860704730B50021002200240023FA
:101BE0005C4D6D6805F00C0121B1042905D0082970
:101BF00023D105E05C4D056022E05B4D05601FE0F0
:101C0000544D6D6805F47012524D6D6805F48034C2
:101C1000022505EB92421CB9544D554305600BE07B
:101C20004C4D6D6805F400351DB1504D55430560B0
:101C300002E04D4D5543056002E04B4D056000BF8D
:101C400000BF444D6D6805F0F0010909484D6B5C1B
:101C50000568DD4045603F4D6D6805F4E061090AA7
:101C6000434D6B5C4568DD4085603A4D6D6805F419
:101C70006051C90A3E4D6B5C4568DD40C560354D1D
:101C80006D6805F44041890B3A4D6B5CC568B5FB46
:101C9000F3F5056130BD29B12E4A526902432D4B3F
:101CA0005A6104E02B4A526982432A4B5A617047B9
:101CB00029B1284A92690243264B9A6104E0254AD9
:101CC00092698243234B9A61704729B1214AD269B4
:101CD0000243204BDA6104E01E4AD26982431D4B65
:101CE000DA61704729B11B4AD2680243194BDA60A6
:101CF00004E0184AD2688243164BDA60704729B173
:101D0000144A12690243134B1A6104E0114A126922
:101D10008243104B1A61704712494039086070477E
:101D20000F49C86470470B49C87170470948406A39
:101D300040F0807007494862704701460020054A1C
:101D400092680A400AB1012000E000207047014972
:101D500088727047001002400000FFF8FFFFF6FE97
:101D6000000042428004424200127A0000093D0015
:101D7000240000203400002001460020FE4A1068A4
:101D800000F03800084310607047FB49096821F0F3
:101D90000801F94A11601146096801431160704752
:101DA000F549096821F01001F34A116011460968EC
:101DB000014311607047F148EF494860F0484860BE
:101DC0007047EE48EC494860ED4848607047EA4883
:101DD000006940F08000E84908617047E648006902
:101DE00040F08000E449086170470420E249C96876
:101DF00001F0010109B101200EE0DF49C96801F0DD
:101E0000040109B1022007E0DB49C96801F01001B3
:101E100009B1032000E00420704700B50246042306
:101E2000FFF7E3FF034603E0FFF7DFFF0346521E21
:101E3000012B01D1002AF7D102B90523184600BDB4
:101E400030B5044604254FF43020FFF7E6FF054681
:101E5000042D17D1C848006940F00200C649086146
:101E600008464461006940F0400008614FF43020AA
:101E7000FFF7D3FF0546C048006941F6FD710840F1
:101E8000BD490861284630BD10B504244FF4302008
:101E9000FFF7C3FF0446042C16D1B748006940F091
:101EA0000400B54908610846006940F04000086137
:101EB0004FF43020FFF7B1FF0446AF48006941F608
:101EC000FB710840AC490861204610BD00B50246D0
:101ED0000423FFF78AFF034603E0FFF786FF03466C
:101EE000521E012B01D1002AF7D102B90523184651
:101EF00000BD10B504244FF43020FFF7E7FF04467F
:101F0000042C16D19C48006940F004009A490861ED
:101F10000846006940F0400008614FF43020FFF7A8
:101F2000D5FF04469448006941F6FB710840924988
:101F30000861204610BD00208F49C96901F00201E7
:101F400009B1012000E00020704730B5A525042428
:101F5000FFF7F1FF00B100254FF43020FFF75DFFE0
:101F60000446042C3AD185488349886084488860B7
:101F70000846006940F0200008610846006940F00A
:101F8000400008614FF43020FFF747FF0446042C5F
:101F90001BD17948006941F6DF7108407649086134
:101FA0000846006940F01000086176480580E002AC
:101FB000FFF733FF0446052C10D06F48006941F647
:101FC000EF7108406C49086108E0052C06D06A48AA
:101FD000006941F6EF71084067490861204630BD4D
:101FE00078B506460C46042500200090E802FFF76D
:101FF00014FF0546042D24D15F48006940F001001C
:102000005D4908613480E802FFF707FF0546042DAB
:1020100010D1B01C0090200C00990880E802FFF756
:10202000FCFE05465448006941F6FE7108405249DD
:10203000086106E05048006941F6FE7108404E49CB
:102040000861284678BD70B504460D460426F002A6
:10205000FFF7E3FE0646042E11D14748006940F021
:102060000100454908612580F002FFF7D6FE0646CB
:102070004148006941F6FE7108403F490861304619
:1020800070BD70B505460E460424E002FFF7C5FE9C
:102090000446042C17D1394837498860384888608D
:1020A0000846006940F0100008612E80E002FFF74A
:1020B000B4FE0446052C06D02F48006941F6EF71A6
:1020C00008402D490861204670BD2DE9F0430446C3
:1020D0004FF6FF763746B046B1460425E443E6B2F4
:1020E000C4F30727C4F307484FEA1469E802FFF76F
:1020F00094FE0546042D49D120481F498860204898
:1021000088600846006940F010000861FF2E06D084
:102110001C4808300680E802FFF77FFE0546042DC4
:1021200008D1FF2F06D017480A300780E802FFF7D2
:1021300074FE0546042D0AD1B8F1FF0F07D01148EF
:102140000C30A0F80080E802FFF767FE0546042D7A
:102150000AD1B9F1FF0F07D00A480E30A0F800905D
:10216000E802FFF75AFE0546052D0FD00248006928
:1021700041F6EF71084007E0002002402301674567
:10218000AB89EFCD00F8FF1F664908612846BDE81E
:10219000F08330B5054604244FF43020FFF73DFEB0
:1021A0000446042C41D160485E4988605F488860DD
:1021B0000846006940F0200008610846006940F0C8
:1021C000400008614FF43020FFF727FE0446042C3E
:1021D00022D15448006941F6DF7108405149086135
:1021E0000846006940F0100008611DB10020504908
:1021F000088002E0A5204E4908804FF43020FFF708
:102200000CFE0446052C10D04648006941F6EF71DB
:1022100008404449086108E0052C06D0414800699F
:1022200041F6DF7108403F490861204630BDF0B5F6
:1022300005460E46174604243B483A4988603B4809
:102240008860E002FFF7E9FD0446042C19D1354807
:10225000006940F010003349086147F0F80030434E
:1022600028433349891C0880E002FFF7D6FD044665
:10227000052C06D02B48006941F6EF71084029492A
:1022800008612046F0BD2748C0698008704725488E
:10229000006A704700202349096801F0200109B154
:1022A000012000E00020704729B11E4A1269024354
:1022B0001C4B1A6104E01B4A12698243194B1A61D4
:1022C000704701460020012908D1164AD26902F060
:1022D00001020AB1012008E0002006E0114AD2689C
:1022E0000A400AB1012000E0002070470D49C86093
:1022F000704704200B49C96801F0010109B10120B0
:102300000EE00849C96801F0040109B1022007E0A4
:102310000449C96801F0100109B1032000E004205C
:10232000704700000020024023016745AB89EFCDD4
:1023300000F8FF1F31490143314A1160704770B501
:10234000002100230F22C47804B32D4C246804F428
:10235000E064C4F5E064210AC1F10403CA40447892
:1023600004FA03F18478144021430901254C0678CE
:10237000A155047804F01F050124AC4005786D11C7
:10238000AD0005F1E025C5F8004109E0047804F04E
:102390001F050124AC401C4D0678761145F82640F7
:1023A00070BD1A4A0A400243154B1B1F1A60704742
:1023B00039B1134A121D12680243114B1B1D1A60DA
:1023C00006E00F4A121D126882430D4B1B1D1A6056
:1023D0007047042808D14FF0E021096941F0040159
:1023E0004FF0E022116107E04FF0E021096921F090
:1023F00004014FF0E0221161704700000000FA056F
:102400000CED00E000E400E080E100E080FFFF1F51
:102410000648804706480047FEE7FEE7FEE7FEE77E
:10242000FEE7FEE7FEE7FEE7FEE7FEE751020008F3
:10243000ED000008014600BF704700BF624A1288E5
:1024400002F04002002AF9D0C2B25F4B1B1D1A8075
:10245000704710B586B00446012144F20400FFF72E
:1024600027FC5A48FFF7B2F84FF40070ADF814009B
:1024700003208DF8160018208DF8170005A9544880
:10248000FEF736FF4FF48060ADF8140048208DF859
:10249000170005A94E48FEF72BFF25208DF80000F8
:1024A00003208DF801008DF8020001208DF8030053
:1024B0006846FFF744FF01940020ADF80800ADF82E
:1024C0000A00ADF80C00ADF810000C20ADF80E00BD
:1024D00001A93E48FFF7BDF8012240F225513B48D3
:1024E000FFF74FF901213948FFF73FF906B010BD5A
:1024F00010B586B0044601210420FFF7D9FB012165
:102500004804FFF7E2FB3048FFF760F80420ADF81D
:10251000140003208DF8160018208DF8170005A967
:102520002B48FEF7E5FE0820ADF8140004208DF8D6
:10253000170005A92648FEF7DBFE26208DF80000CF
:1025400000208DF8010001208DF802008DF80300B5
:102550006846FFF7F4FE01940020ADF80800ADF8DE
:102560000A00ADF80C00ADF810000C20ADF80E001C
:1025700001A91548FFF76DF8012240F225511248D4
:10258000FFF7FFF801211048FFF7EFF806B010BD84
:1025900010B540F225510D48FFF7D8F910BD10B520
:1025A00040F225510848FFF7D1F958B10648FFF726
:1025B0004DF9C1B2074802680068401C054B18601D
:1025C0000548815410BD000000440040003801401F
:1025D000000801403C000020D800002010B56FF03A
:1025E0000400FFF7F6FE2E4800682E49B0FBF1F01C
:1025F0002D4908700846007800EB4001C1EBC0107F
:102600004FF6FF7101EAC0002849088010BD01465D
:10261000254A12784A434FF0E0235A6100229A611A
:102620001A46126942F001021A6100BF4FF0E0221F
:10263000106900F001021AB100F48032002AF5D0CE
:102640004FF0E022126922F001024FF0E0231A61FC
:1026500000229A6170470146144A12884A434FF09B
:10266000E0235A6100229A611A46126942F001027F
:102670001A6100BF4FF0E022106900F001021AB1A8
:1026800000F48032002AF5D04FF0E022126922F0E7
:1026900001024FF0E0231A6100229A6170470000A6
:1026A0000000002000127A004200002044000020B8
:1026B00010B54FF4A060FFF73DFE10BD0021A54A04
:1026C000116051609160A4490860704703B5A1484A
:1026D00080680A2801DB00200CBD9E4841680C3050
:1026E00000EBC100DDE9001206C09A484068401CBA
:1026F0000A2190FBF1F201FB12009649486008465E
:102700008068401C88600120E6E72DE9F047CDB0E5
:102710000746884691461E460024A2468F48007808
:10272000401C8E49087008460078FF2801DB012014
:1027300008708B4802782046641C02A90A5420467F
:10274000641C0F542046641C01F80080002507E03B
:1027500081480068425D2046641C02A90A546D1C31
:10276000082DF5DB7D4802782046641C02A90A5436
:102770002046641C0E54002506E019F8052020466A
:10278000641C02A90A546D1CB542F6DB002505E065
:1027900002A8405D504400F0FF0A6D1CA542F7DB23
:1027A0002046641C02A901F800A00D222046641CEA
:1027B0000A540A222046641C0A5402A8009001947C
:1027C000DDE90001FFF782FF4DB0BDE8F08770B58D
:1027D0000025FEF742FA00240BE06248005D5E2807
:1027E00000D10BE05F48025D28466D1C5E490A542B
:1027F000641C5C4800F0E8F8A042EED800BF2B460D
:10280000594A01210846FFF780FF70BD10B500202E
:102810005649087056490860FDF7A9FE10BD0246EA
:10282000012070472DE9F04100275248006808B99F
:10283000BDE8F08100254FE04F48445D48480078EE
:10284000844200D10127002F45D049480168006823
:10285000401C474A106049484454444800780D28B9
:1028600030D10A2C2ED14548FDF770FE44A0FDF76B
:102870006DFE3F4800680A2821DD4048007838494D
:10288000097888421BD13A4801683C48FFF7C7FFE6
:10289000A8B100263948407808280FD137488078F9
:1028A00001280BD13548C27A3046761C35490A5486
:1028B00033460A4601210220FFF727FF00BFFFF73A
:1028C000A5FF08E02948047029480068B0F59E7FFC
:1028D00001DBFFF79BFF6D1C264800688542ABDBE0
:1028E00000BFA5E701461B48806808B90020704773
:1028F000184802680C3000EBC20205CAC1E90002A8
:1029000014480068401C0A2290FBF2F302FB1300FB
:10291000104A106010468068401E90600120E6E773
:102920001CB5FFF77FFF6846FFF7DCFF10B100988A
:10293000FEF7FBF91CBD30B50446002528466D1C8A
:1029400011490C542B460A4600210220FFF7DDFEF8
:1029500030BD000030030020540000205000002053
:10296000580000205C0000208C030020480000205C
:102970004C0000203C000020D80000200402002071
:102980000D0A0000B8040020E4050020421E12F8E1
:10299000013F002BFBD111F8013B02F8013B002B5A
:1029A000F9D1704730B505462A460B4612F8010B9F
:1029B00013F8014B08B1A042F8D01CB1002802D096
:1029C0006D1CF1E7284630BD421C10F8011B0029A0
:1029D000FBD1801A704730B50B46014600202022FB
:1029E000012409E021FA02F59D4205D303FA02F51C
:1029F000491B04FA02F52844151EA2F10102F1DC7C
:102A000030BD0000064C074D06E0E06840F00103D1
:102A100094E8070098471034AC42F6D3FDF76AFB00
:102A2000542C0008742C00080FB4054B10B503A9F2
:102A3000044A029800F02CF810BC5DF814FB00006A
:102A40003B240008380000200FB4084B10B504A93F
:102A500002AA039800F01CF8044602A9002000F026
:102A6000F3F8204610BC5DF814FB0000492C000868
:102A700002E008C8121F08C1002AFAD17047704747
:102A8000002001E001C1121F002AFBD170470000A5
:102A90002DE9FF4F8BB09A460F460546002606E00B
:102AA00025280BD052460D9990476D1C761C28782E
:102AB0000028F5D10FB03046BDE8F08F0024A046C5
:102AC0000122604900E0044315F8013F203B02FA6F
:102AD00003F00842F7D128782E2817D115F8010FF6
:102AE00044F004042A280ED06FF02F022878A0F1B9
:102AF000300109290AD808EB880102EB410100EBFB
:102B000001086D1CF2E757F8048B6D1C28786928C2
:102B10003ED006DC0028CDD063280BD0642804D139
:102B200036E0732810D075284BD052460D99904747
:102B3000761C85E017F8040B8DF8000000208DF856
:102B40000100E946012003E057F8049B4FF0FF30F5
:102B500061074FF0000401D40AE0641C44450DDA1B
:102B60008442FADB19F804100029F6D106E0641C4F
:102B70008442FCDB19F804100029F8D1264404E053
:102B800019F8010B52460D999047641EF8D257E090
:102B900001CF4FF00A0B002802DA40422D2102E05B
:102BA000210504D52B218DF82410012103E0E10734
:102BB00005D02021F7E70DF1200908910CE0002154
:102BC000F9E701CF4FF00A0BF9E75946FFF703FF8A
:102BD00001F1300209F8012D0028F6D1ADEB090012
:102BE00000F1200B600701D44FF00108D84502DD49
:102BF000A8EB0B0000E000208046002406E009A8B6
:102C00005246005D0D999047641C761C08988442DA
:102C1000F5DB04E0302052460D999047761CB8F160
:102C20000001A8F10108F5DC05E019F8010B524696
:102C30000D999047761CBBF10001ABF1010BF4DC60
:102C40006D1C34E7092801000A68531C0B601070E2
:102C500070470000742C0008000000205C00000099
:102C6000702A0008D02C00085C000020B40A000084
:102C7000802A000800A24A040000000000000000B2
:102C8000010203040607080900000000000000001C
:102C9000000000000000000000000000010203042A
:102CA00001020304060708090204060800000000E8
:102CB0000000000000000000000000000000000014
:102CC0000000000000000000000000007E00000086
:04000005080000ED02
:00000001FF
