Component: ARM Compiler 5.06 update 6 (build 750) Tool: armlink [4d35ed]

==============================================================================

Section Cross References

    main.o(.text) refers to delay.o(.text) for delay_init
    main.o(.text) refers to sys.o(.text) for NVIC_Configuration
    main.o(.text) refers to led.o(.text) for LED_Init
    main.o(.text) refers to usart.o(.text) for uart_init
    main.o(.text) refers to m26.o(.text) for Uart1_SendStr
    main.o(.text) refers to wdg.o(.text) for IWDG_Feed
    main.o(.text) refers to protocol.o(.text) for protocol_init
    system_stm32f10x.o(.text) refers to stm32f10x_rcc.o(.text) for RCC_DeInit
    system_stm32f10x.o(.text) refers to stm32f10x_flash.o(.text) for FLASH_PrefetchBufferCmd
    system_stm32f10x.o(.text) refers to system_stm32f10x.o(.data) for SystemCoreClock
    led.o(.text) refers to stm32f10x_rcc.o(.text) for RCC_APB2PeriphClockCmd
    led.o(.text) refers to stm32f10x_gpio.o(.text) for GPIO_Init
    wdg.o(.text) refers to stm32f10x_iwdg.o(.text) for IWDG_WriteAccessCmd
    m26.o(.text) refers to wdg.o(.text) for IWDG_Feed
    m26.o(.text) refers to printf3.o(i.__0printf$3) for __2printf
    m26.o(.text) refers to delay.o(.text) for delay_ms
    m26.o(.text) refers to strstr.o(.text) for strstr
    m26.o(.text) refers to usart.o(.bss) for RxBuffer
==============================================================================

Removing Unused input sections from the image.

    Removing core_cm3.o(.emb_text), (32 bytes).
    Removing startup_stm32f10x_md.o(HEAP), (512 bytes).
    Removing dadd.o(.text), (334 bytes).
    Removing dmul.o(.text), (228 bytes).
    Removing ddiv.o(.text), (222 bytes).
    Removing dfixul.o(.text), (48 bytes).
    Removing cdrcmple.o(.text), (48 bytes).
    Removing depilogue.o(.text), (186 bytes).

8 unused section(s) (total 1610 bytes) removed from the image.

==============================================================================

Image Symbol Table

    Local Symbols

    Symbol Name                              Value     Ov Type        Size  Object(Section)

    ../clib/microlib/division.c              0x00000000   Number         0  uldiv.o ABSOLUTE
    ../clib/microlib/division.c              0x00000000   Number         0  uidiv.o ABSOLUTE
    ../clib/microlib/init/entry.s            0x00000000   Number         0  entry8b.o ABSOLUTE
    ../clib/microlib/init/entry.s            0x00000000   Number         0  entry9a.o ABSOLUTE
    ../clib/microlib/init/entry.s            0x00000000   Number         0  entry7b.o ABSOLUTE
    ../clib/microlib/init/entry.s            0x00000000   Number         0  entry10a.o ABSOLUTE
    ../clib/microlib/init/entry.s            0x00000000   Number         0  entry10b.o ABSOLUTE
    ../clib/microlib/init/entry.s            0x00000000   Number         0  entry11a.o ABSOLUTE
    ../clib/microlib/init/entry.s            0x00000000   Number         0  entry7a.o ABSOLUTE
    ../clib/microlib/init/entry.s            0x00000000   Number         0  entry11b.o ABSOLUTE
    ../clib/microlib/init/entry.s            0x00000000   Number         0  entry9b.o ABSOLUTE
    ../clib/microlib/init/entry.s            0x00000000   Number         0  entry.o ABSOLUTE
    ../clib/microlib/init/entry.s            0x00000000   Number         0  entry8a.o ABSOLUTE
    ../clib/microlib/init/entry.s            0x00000000   Number         0  entry2.o ABSOLUTE
    ../clib/microlib/init/entry.s            0x00000000   Number         0  entry5.o ABSOLUTE
    ../clib/microlib/longlong.c              0x00000000   Number         0  llshl.o ABSOLUTE
    ../clib/microlib/longlong.c              0x00000000   Number         0  llushr.o ABSOLUTE
    ../clib/microlib/longlong.c              0x00000000   Number         0  llsshr.o ABSOLUTE
    ../clib/microlib/printf/printf.c         0x00000000   Number         0  printf7.o ABSOLUTE
    ../clib/microlib/printf/printf.c         0x00000000   Number         0  printf8.o ABSOLUTE
    ../clib/microlib/printf/printf.c         0x00000000   Number         0  printfa.o ABSOLUTE
    ../clib/microlib/printf/printf.c         0x00000000   Number         0  printf4.o ABSOLUTE
    ../clib/microlib/printf/printf.c         0x00000000   Number         0  printf6.o ABSOLUTE
    ../clib/microlib/printf/printf.c         0x00000000   Number         0  printf3.o ABSOLUTE
    ../clib/microlib/printf/printf.c         0x00000000   Number         0  printf2.o ABSOLUTE
    ../clib/microlib/printf/printf.c         0x00000000   Number         0  printf1.o ABSOLUTE
    ../clib/microlib/printf/printf.c         0x00000000   Number         0  printf0.o ABSOLUTE
    ../clib/microlib/printf/printf.c         0x00000000   Number         0  printfb.o ABSOLUTE
    ../clib/microlib/printf/printf.c         0x00000000   Number         0  printf5.o ABSOLUTE
    ../clib/microlib/printf/stubs.s          0x00000000   Number         0  stubs.o ABSOLUTE
    ../clib/microlib/string/strcat.c         0x00000000   Number         0  strcat.o ABSOLUTE
    ../clib/microlib/string/strlen.c         0x00000000   Number         0  strlen.o ABSOLUTE
    ../clib/microlib/string/strstr.c         0x00000000   Number         0  strstr.o ABSOLUTE
    ../clib/microlib/stubs.s                 0x00000000   Number         0  iusefp.o ABSOLUTE
    ../clib/microlib/stubs.s                 0x00000000   Number         0  useno.o ABSOLUTE
    ../fplib/microlib/fpadd.c                0x00000000   Number         0  dadd.o ABSOLUTE
    ../fplib/microlib/fpdiv.c                0x00000000   Number         0  ddiv.o ABSOLUTE
    ../fplib/microlib/fpepilogue.c           0x00000000   Number         0  depilogue.o ABSOLUTE
    ../fplib/microlib/fpfix.c                0x00000000   Number         0  dfixul.o ABSOLUTE
    ../fplib/microlib/fpmul.c                0x00000000   Number         0  dmul.o ABSOLUTE
    ..\CORE\core_cm3.c                       0x00000000   Number         0  core_cm3.o ABSOLUTE
    ..\CORE\startup_stm32f10x_md.s           0x00000000   Number         0  startup_stm32f10x_md.o ABSOLUTE
    ..\HARDWARE\LED\led.c                    0x00000000   Number         0  led.o ABSOLUTE
    ..\HARDWARE\M26\M26.c                    0x00000000   Number         0  m26.o ABSOLUTE
    ..\HARDWARE\WDG\wdg.c                    0x00000000   Number         0  wdg.o ABSOLUTE
    ..\PROTOCOL\protocol.c                   0x00000000   Number         0  protocol.o ABSOLUTE
    ..\STM32F10x_FWLib\src\misc.c            0x00000000   Number         0  misc.o ABSOLUTE
    ..\STM32F10x_FWLib\src\stm32f10x_flash.c 0x00000000   Number         0  stm32f10x_flash.o ABSOLUTE
    ..\STM32F10x_FWLib\src\stm32f10x_gpio.c  0x00000000   Number         0  stm32f10x_gpio.o ABSOLUTE
    ..\STM32F10x_FWLib\src\stm32f10x_iwdg.c  0x00000000   Number         0  stm32f10x_iwdg.o ABSOLUTE
    ..\STM32F10x_FWLib\src\stm32f10x_rcc.c   0x00000000   Number         0  stm32f10x_rcc.o ABSOLUTE
    ..\STM32F10x_FWLib\src\stm32f10x_usart.c 0x00000000   Number         0  stm32f10x_usart.o ABSOLUTE
    ..\SYSTEM\delay\delay.c                  0x00000000   Number         0  delay.o ABSOLUTE
    ..\SYSTEM\sys\sys.c                      0x00000000   Number         0  sys.o ABSOLUTE
    ..\SYSTEM\usart\usart.c                  0x00000000   Number         0  usart.o ABSOLUTE
    ..\\CORE\\core_cm3.c                     0x00000000   Number         0  core_cm3.o ABSOLUTE
    cdrcmple.s                               0x00000000   Number         0  cdrcmple.o ABSOLUTE
    dc.s                                     0x00000000   Number         0  dc.o ABSOLUTE
    handlers.s                               0x00000000   Number         0  handlers.o ABSOLUTE
    hex_str.c                                0x00000000   Number         0  hex_str.o ABSOLUTE
    init.s                                   0x00000000   Number         0  init.o ABSOLUTE
    main.c                                   0x00000000   Number         0  main.o ABSOLUTE
    stm32f10x_it.c                           0x00000000   Number         0  stm32f10x_it.o ABSOLUTE
    system_stm32f10x.c                       0x00000000   Number         0  system_stm32f10x.o ABSOLUTE
    RESET                                    0x08000000   Section      236  startup_stm32f10x_md.o(RESET)
    .ARM.Collect$$$$00000000                 0x080000ec   Section        0  entry.o(.ARM.Collect$$$$00000000)
    .ARM.Collect$$$$00000001                 0x080000ec   Section        4  entry2.o(.ARM.Collect$$$$00000001)
    .ARM.Collect$$$$00000004                 0x080000f0   Section        4  entry5.o(.ARM.Collect$$$$00000004)
    .ARM.Collect$$$$00000008                 0x080000f4   Section        0  entry7b.o(.ARM.Collect$$$$00000008)
    .ARM.Collect$$$$0000000A                 0x080000f4   Section        0  entry8b.o(.ARM.Collect$$$$0000000A)
    .ARM.Collect$$$$0000000B                 0x080000f4   Section        8  entry9a.o(.ARM.Collect$$$$0000000B)
    .ARM.Collect$$$$0000000D                 0x080000fc   Section        0  entry10a.o(.ARM.Collect$$$$0000000D)
    .ARM.Collect$$$$0000000F                 0x080000fc   Section        0  entry11a.o(.ARM.Collect$$$$0000000F)
    .ARM.Collect$$$$00002712                 0x080000fc   Section        4  entry2.o(.ARM.Collect$$$$00002712)
    __lit__00000000                          0x080000fc   Data           4  entry2.o(.ARM.Collect$$$$00002712)
    .text                                    0x08000100   Section        0  main.o(.text)
    .text                                    0x08000234   Section        0  stm32f10x_it.o(.text)
    .text                                    0x08000250   Section        0  system_stm32f10x.o(.text)
    SetSysClockTo72                          0x080002bf   Thumb Code   214  system_stm32f10x.o(.text)
    SetSysClock                              0x08000395   Thumb Code     8  system_stm32f10x.o(.text)
    .text                                    0x0800049c   Section        0  led.o(.text)
    .text                                    0x08000520   Section        0  wdg.o(.text)
    .text                                    0x0800054c   Section        0  m26.o(.text)
    .text                                    0x08001150   Section        0  hex_str.o(.text)
    .text                                    0x08001230   Section        0  stm32f10x_gpio.o(.text)
    .text                                    0x0800158c   Section        0  stm32f10x_iwdg.o(.text)
    .text                                    0x080015cc   Section        0  stm32f10x_usart.o(.text)
    .text                                    0x080019d4   Section        0  stm32f10x_rcc.o(.text)
    .text                                    0x08001d78   Section        0  stm32f10x_flash.o(.text)
    .text                                    0x08002334   Section        0  misc.o(.text)
    .text                                    0x08002410   Section       36  startup_stm32f10x_md.o(.text)
    .text                                    0x08002434   Section        0  usart.o(.text)
    .text                                    0x080025dc   Section        0  delay.o(.text)
    .text                                    0x080026b0   Section        0  sys.o(.text)
    .text                                    0x080026bc   Section        0  protocol.o(.text)
    .text                                    0x0800298c   Section        0  strcat.o(.text)
    .text                                    0x080029a4   Section        0  strstr.o(.text)
    .text                                    0x080029c8   Section        0  strlen.o(.text)
    .text                                    0x080029d6   Section        0  uidiv.o(.text)
    .text                                    0x08002a04   Section       36  init.o(.text)
    i.__0printf$3                            0x08002a28   Section        0  printf3.o(i.__0printf$3)
    i.__0sprintf$3                           0x08002a48   Section        0  printf3.o(i.__0sprintf$3)
    i.__scatterload_copy                     0x08002a70   Section       14  handlers.o(i.__scatterload_copy)
    i.__scatterload_null                     0x08002a7e   Section        2  handlers.o(i.__scatterload_null)
    i.__scatterload_zeroinit                 0x08002a80   Section       14  handlers.o(i.__scatterload_zeroinit)
    i._printf_core                           0x08002a90   Section        0  printf3.o(i._printf_core)
    _printf_core                             0x08002a91   Thumb Code   436  printf3.o(i._printf_core)
    i._sputc                                 0x08002c48   Section        0  printf3.o(i._sputc)
    _sputc                                   0x08002c49   Thumb Code    10  printf3.o(i._sputc)
    .data                                    0x20000000   Section       20  system_stm32f10x.o(.data)
    .data                                    0x20000014   Section       16  m26.o(.data)
    .data                                    0x20000024   Section       20  stm32f10x_rcc.o(.data)
    APBAHBPrescTable                         0x20000024   Data          16  stm32f10x_rcc.o(.data)
    ADCPrescTable                            0x20000034   Data           4  stm32f10x_rcc.o(.data)
    .data                                    0x20000038   Section       10  usart.o(.data)
    .data                                    0x20000042   Section        4  delay.o(.data)
    fac_us                                   0x20000042   Data           1  delay.o(.data)
    fac_ms                                   0x20000044   Data           2  delay.o(.data)
    .data                                    0x20000048   Section       17  protocol.o(.data)
    common_item_no                           0x20000050   Data           1  protocol.o(.data)
    .bss                                     0x2000005c   Section      124  m26.o(.bss)
    .bss                                     0x200000d8   Section      300  usart.o(.bss)
    .bss                                     0x20000204   Section     1292  protocol.o(.bss)
    receive_buf                              0x20000204   Data         300  protocol.o(.bss)
    payload                                  0x2000038c   Data         300  protocol.o(.bss)
    payload                                  0x200004b8   Data         300  protocol.o(.bss)
    payload                                  0x200005e4   Data         300  protocol.o(.bss)
    STACK                                    0x20000710   Section     1024  startup_stm32f10x_md.o(STACK)

    Global Symbols

    Symbol Name                              Value     Ov Type        Size  Object(Section)

    BuildAttributes$$THM_ISAv4$P$D$K$B$S$PE$A:L22UL41UL21$X:L11$S22US41US21$IEEE1$IW$USESV6$~STKCKD$USESV7$~SHL$OSPACE$ROPI$EBA8$MICROLIB$REQ8$PRES8$EABIv2 0x00000000   Number         0  anon$$obj.o ABSOLUTE
    __ARM_use_no_argv                        0x00000000   Number         0  main.o ABSOLUTE
    __use_no_errno                           0x00000000   Number         0  useno.o ABSOLUTE
    __use_no_exception_handling              0x00000000   Number         0  useno.o ABSOLUTE
    __use_no_fp                              0x00000000   Number         0  useno.o ABSOLUTE
    __use_no_heap                            0x00000000   Number         0  useno.o ABSOLUTE
    __use_no_heap_region                     0x00000000   Number         0  useno.o ABSOLUTE
    __use_no_semihosting                     0x00000000   Number         0  useno.o ABSOLUTE
    __use_no_semihosting_swi                 0x00000000   Number         0  useno.o ABSOLUTE
    __use_no_signal_handling                 0x00000000   Number         0  useno.o ABSOLUTE
    _printf_a                                0x00000000   Number         0  stubs.o ABSOLUTE
    _printf_c                                0x00000000   Number         0  stubs.o ABSOLUTE
    _printf_charcount                        0x00000000   Number         0  stubs.o ABSOLUTE
    _printf_d                                0x00000000   Number         0  stubs.o ABSOLUTE
    _printf_e                                0x00000000   Number         0  stubs.o ABSOLUTE
    _printf_f                                0x00000000   Number         0  stubs.o ABSOLUTE
    _printf_flags                            0x00000000   Number         0  stubs.o ABSOLUTE
    _printf_fp_dec                           0x00000000   Number         0  stubs.o ABSOLUTE
    _printf_fp_hex                           0x00000000   Number         0  stubs.o ABSOLUTE
    _printf_g                                0x00000000   Number         0  stubs.o ABSOLUTE
    _printf_i                                0x00000000   Number         0  stubs.o ABSOLUTE
    _printf_int_dec                          0x00000000   Number         0  stubs.o ABSOLUTE
    _printf_l                                0x00000000   Number         0  stubs.o ABSOLUTE
    _printf_lc                               0x00000000   Number         0  stubs.o ABSOLUTE
    _printf_ll                               0x00000000   Number         0  stubs.o ABSOLUTE
    _printf_lld                              0x00000000   Number         0  stubs.o ABSOLUTE
    _printf_lli                              0x00000000   Number         0  stubs.o ABSOLUTE
    _printf_llo                              0x00000000   Number         0  stubs.o ABSOLUTE
    _printf_llu                              0x00000000   Number         0  stubs.o ABSOLUTE
    _printf_llx                              0x00000000   Number         0  stubs.o ABSOLUTE
    _printf_longlong_dec                     0x00000000   Number         0  stubs.o ABSOLUTE
    _printf_longlong_hex                     0x00000000   Number         0  stubs.o ABSOLUTE
    _printf_longlong_oct                     0x00000000   Number         0  stubs.o ABSOLUTE
    _printf_ls                               0x00000000   Number         0  stubs.o ABSOLUTE
    _printf_mbtowc                           0x00000000   Number         0  stubs.o ABSOLUTE
    _printf_n                                0x00000000   Number         0  stubs.o ABSOLUTE
    _printf_o                                0x00000000   Number         0  stubs.o ABSOLUTE
    _printf_p                                0x00000000   Number         0  stubs.o ABSOLUTE
    _printf_percent                          0x00000000   Number         0  stubs.o ABSOLUTE
    _printf_pre_padding                      0x00000000   Number         0  stubs.o ABSOLUTE
    _printf_return_value                     0x00000000   Number         0  stubs.o ABSOLUTE
    _printf_s                                0x00000000   Number         0  stubs.o ABSOLUTE
    _printf_sizespec                         0x00000000   Number         0  stubs.o ABSOLUTE
    _printf_str                              0x00000000   Number         0  stubs.o ABSOLUTE
    _printf_truncate_signed                  0x00000000   Number         0  stubs.o ABSOLUTE
    _printf_truncate_unsigned                0x00000000   Number         0  stubs.o ABSOLUTE
    _printf_u                                0x00000000   Number         0  stubs.o ABSOLUTE
    _printf_wc                               0x00000000   Number         0  stubs.o ABSOLUTE
    _printf_wctomb                           0x00000000   Number         0  stubs.o ABSOLUTE
    _printf_widthprec                        0x00000000   Number         0  stubs.o ABSOLUTE
    _printf_x                                0x00000000   Number         0  stubs.o ABSOLUTE
    __cpp_initialize__aeabi_                  - Undefined Weak Reference
    __cxa_finalize                            - Undefined Weak Reference
    __decompress                              - Undefined Weak Reference
    _clock_init                               - Undefined Weak Reference
    _microlib_exit                            - Undefined Weak Reference
    __Vectors_Size                           0x000000ec   Number         0  startup_stm32f10x_md.o ABSOLUTE
    __Vectors                                0x08000000   Data           4  startup_stm32f10x_md.o(RESET)
    __Vectors_End                            0x080000ec   Data           0  startup_stm32f10x_md.o(RESET)
    __main                                   0x080000ed   Thumb Code     0  entry.o(.ARM.Collect$$$$00000000)
    _main_stk                                0x080000ed   Thumb Code     0  entry2.o(.ARM.Collect$$$$00000001)
    _main_scatterload                        0x080000f1   Thumb Code     0  entry5.o(.ARM.Collect$$$$00000004)
    __main_after_scatterload                 0x080000f5   Thumb Code     0  entry5.o(.ARM.Collect$$$$00000004)
    _main_clock                              0x080000f5   Thumb Code     0  entry7b.o(.ARM.Collect$$$$00000008)
    _main_cpp_init                           0x080000f5   Thumb Code     0  entry8b.o(.ARM.Collect$$$$0000000A)
    _main_init                               0x080000f5   Thumb Code     0  entry9a.o(.ARM.Collect$$$$0000000B)
    __rt_final_cpp                           0x080000fd   Thumb Code     0  entry10a.o(.ARM.Collect$$$$0000000D)
    __rt_final_exit                          0x080000fd   Thumb Code     0  entry11a.o(.ARM.Collect$$$$0000000F)
    main                                     0x08000101   Thumb Code   154  main.o(.text)
    NMI_Handler                              0x08000235   Thumb Code     2  stm32f10x_it.o(.text)
    HardFault_Handler                        0x08000237   Thumb Code     4  stm32f10x_it.o(.text)
    MemManage_Handler                        0x0800023b   Thumb Code     4  stm32f10x_it.o(.text)
    BusFault_Handler                         0x0800023f   Thumb Code     4  stm32f10x_it.o(.text)
    UsageFault_Handler                       0x08000243   Thumb Code     4  stm32f10x_it.o(.text)
    SVC_Handler                              0x08000247   Thumb Code     2  stm32f10x_it.o(.text)
    DebugMon_Handler                         0x08000249   Thumb Code     2  stm32f10x_it.o(.text)
    PendSV_Handler                           0x0800024b   Thumb Code     2  stm32f10x_it.o(.text)
    SysTick_Handler                          0x0800024d   Thumb Code     2  stm32f10x_it.o(.text)
    RCC_Configuration                        0x08000251   Thumb Code   110  system_stm32f10x.o(.text)
    SystemInit                               0x0800039d   Thumb Code    78  system_stm32f10x.o(.text)
    SystemCoreClockUpdate                    0x080003eb   Thumb Code   142  system_stm32f10x.o(.text)
    LED_Init                                 0x0800049d   Thumb Code   122  led.o(.text)
    IWDG_Init                                0x08000521   Thumb Code    36  wdg.o(.text)
    IWDG_Feed                                0x08000545   Thumb Code     8  wdg.o(.text)
    Uart1_SendStr                            0x0800054d   Thumb Code    34  m26.o(.text)
    Clear_Buffer                             0x0800056f   Thumb Code    42  m26.o(.text)
    OPEN_MC20                                0x08000599   Thumb Code   198  m26.o(.text)
    GSM_Init                                 0x0800065f   Thumb Code  1206  m26.o(.text)
    Get_LBSStationRes                        0x08000b15   Thumb Code   326  m26.o(.text)
    GetLongLatistr                           0x08000c5b   Thumb Code   208  m26.o(.text)
    Send_Str                                 0x08000d2b   Thumb Code   140  m26.o(.text)
    BT_Init                                  0x08000db7   Thumb Code   502  m26.o(.text)
    BT_Connect                               0x08000fad   Thumb Code   242  m26.o(.text)
    mypow                                    0x08001151   Thumb Code    24  hex_str.o(.text)
    hex_check                                0x08001169   Thumb Code    58  hex_str.o(.text)
    conv                                     0x080011a3   Thumb Code   140  hex_str.o(.text)
    GPIO_DeInit                              0x08001231   Thumb Code   172  stm32f10x_gpio.o(.text)
    GPIO_AFIODeInit                          0x080012dd   Thumb Code    20  stm32f10x_gpio.o(.text)
    GPIO_Init                                0x080012f1   Thumb Code   278  stm32f10x_gpio.o(.text)
    GPIO_StructInit                          0x08001407   Thumb Code    16  stm32f10x_gpio.o(.text)
    GPIO_ReadInputDataBit                    0x08001417   Thumb Code    18  stm32f10x_gpio.o(.text)
    GPIO_ReadInputData                       0x08001429   Thumb Code     8  stm32f10x_gpio.o(.text)
    GPIO_ReadOutputDataBit                   0x08001431   Thumb Code    18  stm32f10x_gpio.o(.text)
    GPIO_ReadOutputData                      0x08001443   Thumb Code     8  stm32f10x_gpio.o(.text)
    GPIO_SetBits                             0x0800144b   Thumb Code     4  stm32f10x_gpio.o(.text)
    GPIO_ResetBits                           0x0800144f   Thumb Code     4  stm32f10x_gpio.o(.text)
    GPIO_WriteBit                            0x08001453   Thumb Code    10  stm32f10x_gpio.o(.text)
    GPIO_Write                               0x0800145d   Thumb Code     4  stm32f10x_gpio.o(.text)
    GPIO_PinLockConfig                       0x08001461   Thumb Code    18  stm32f10x_gpio.o(.text)
    GPIO_EventOutputConfig                   0x08001473   Thumb Code    26  stm32f10x_gpio.o(.text)
    GPIO_EventOutputCmd                      0x0800148d   Thumb Code     6  stm32f10x_gpio.o(.text)
    GPIO_PinRemapConfig                      0x08001493   Thumb Code   138  stm32f10x_gpio.o(.text)
    GPIO_EXTILineConfig                      0x0800151d   Thumb Code    66  stm32f10x_gpio.o(.text)
    GPIO_ETH_MediaInterfaceConfig            0x0800155f   Thumb Code     8  stm32f10x_gpio.o(.text)
    IWDG_WriteAccessCmd                      0x0800158d   Thumb Code     6  stm32f10x_iwdg.o(.text)
    IWDG_SetPrescaler                        0x08001593   Thumb Code     6  stm32f10x_iwdg.o(.text)
    IWDG_SetReload                           0x08001599   Thumb Code     6  stm32f10x_iwdg.o(.text)
    IWDG_ReloadCounter                       0x0800159f   Thumb Code    10  stm32f10x_iwdg.o(.text)
    IWDG_Enable                              0x080015a9   Thumb Code    10  stm32f10x_iwdg.o(.text)
    IWDG_GetFlagStatus                       0x080015b3   Thumb Code    20  stm32f10x_iwdg.o(.text)
    USART_DeInit                             0x080015cd   Thumb Code   134  stm32f10x_usart.o(.text)
    USART_Init                               0x08001653   Thumb Code   210  stm32f10x_usart.o(.text)
    USART_StructInit                         0x08001725   Thumb Code    24  stm32f10x_usart.o(.text)
    USART_ClockInit                          0x0800173d   Thumb Code    34  stm32f10x_usart.o(.text)
    USART_ClockStructInit                    0x0800175f   Thumb Code    12  stm32f10x_usart.o(.text)
    USART_Cmd                                0x0800176b   Thumb Code    24  stm32f10x_usart.o(.text)
    USART_ITConfig                           0x08001783   Thumb Code    74  stm32f10x_usart.o(.text)
    USART_DMACmd                             0x080017cd   Thumb Code    18  stm32f10x_usart.o(.text)
    USART_SetAddress                         0x080017df   Thumb Code    18  stm32f10x_usart.o(.text)
    USART_WakeUpConfig                       0x080017f1   Thumb Code    18  stm32f10x_usart.o(.text)
    USART_ReceiverWakeUpCmd                  0x08001803   Thumb Code    24  stm32f10x_usart.o(.text)
    USART_LINBreakDetectLengthConfig         0x0800181b   Thumb Code    18  stm32f10x_usart.o(.text)
    USART_LINCmd                             0x0800182d   Thumb Code    24  stm32f10x_usart.o(.text)
    USART_SendData                           0x08001845   Thumb Code     8  stm32f10x_usart.o(.text)
    USART_ReceiveData                        0x0800184d   Thumb Code    10  stm32f10x_usart.o(.text)
    USART_SendBreak                          0x08001857   Thumb Code    10  stm32f10x_usart.o(.text)
    USART_SetGuardTime                       0x08001861   Thumb Code    16  stm32f10x_usart.o(.text)
    USART_SetPrescaler                       0x08001871   Thumb Code    16  stm32f10x_usart.o(.text)
    USART_SmartCardCmd                       0x08001881   Thumb Code    24  stm32f10x_usart.o(.text)
    USART_SmartCardNACKCmd                   0x08001899   Thumb Code    24  stm32f10x_usart.o(.text)
    USART_HalfDuplexCmd                      0x080018b1   Thumb Code    24  stm32f10x_usart.o(.text)
    USART_OverSampling8Cmd                   0x080018c9   Thumb Code    22  stm32f10x_usart.o(.text)
    USART_OneBitMethodCmd                    0x080018df   Thumb Code    24  stm32f10x_usart.o(.text)
    USART_IrDAConfig                         0x080018f7   Thumb Code    18  stm32f10x_usart.o(.text)
    USART_IrDACmd                            0x08001909   Thumb Code    24  stm32f10x_usart.o(.text)
    USART_GetFlagStatus                      0x08001921   Thumb Code    26  stm32f10x_usart.o(.text)
    USART_ClearFlag                          0x0800193b   Thumb Code    18  stm32f10x_usart.o(.text)
    USART_GetITStatus                        0x0800194d   Thumb Code    84  stm32f10x_usart.o(.text)
    USART_ClearITPendingBit                  0x080019a1   Thumb Code    52  stm32f10x_usart.o(.text)
    RCC_DeInit                               0x080019d5   Thumb Code    64  stm32f10x_rcc.o(.text)
    RCC_HSEConfig                            0x08001a15   Thumb Code    70  stm32f10x_rcc.o(.text)
    RCC_GetFlagStatus                        0x08001a5b   Thumb Code    56  stm32f10x_rcc.o(.text)
    RCC_WaitForHSEStartUp                    0x08001a93   Thumb Code    56  stm32f10x_rcc.o(.text)
    RCC_AdjustHSICalibrationValue            0x08001acb   Thumb Code    20  stm32f10x_rcc.o(.text)
    RCC_HSICmd                               0x08001adf   Thumb Code     6  stm32f10x_rcc.o(.text)
    RCC_PLLConfig                            0x08001ae5   Thumb Code    24  stm32f10x_rcc.o(.text)
    RCC_PLLCmd                               0x08001afd   Thumb Code     6  stm32f10x_rcc.o(.text)
    RCC_SYSCLKConfig                         0x08001b03   Thumb Code    18  stm32f10x_rcc.o(.text)
    RCC_GetSYSCLKSource                      0x08001b15   Thumb Code    10  stm32f10x_rcc.o(.text)
    RCC_HCLKConfig                           0x08001b1f   Thumb Code    18  stm32f10x_rcc.o(.text)
    RCC_PCLK1Config                          0x08001b31   Thumb Code    18  stm32f10x_rcc.o(.text)
    RCC_PCLK2Config                          0x08001b43   Thumb Code    20  stm32f10x_rcc.o(.text)
    RCC_ITConfig                             0x08001b57   Thumb Code    26  stm32f10x_rcc.o(.text)
    RCC_USBCLKConfig                         0x08001b71   Thumb Code     8  stm32f10x_rcc.o(.text)
    RCC_ADCCLKConfig                         0x08001b79   Thumb Code    18  stm32f10x_rcc.o(.text)
    RCC_LSEConfig                            0x08001b8b   Thumb Code    50  stm32f10x_rcc.o(.text)
    RCC_LSICmd                               0x08001bbd   Thumb Code     6  stm32f10x_rcc.o(.text)
    RCC_RTCCLKConfig                         0x08001bc3   Thumb Code    12  stm32f10x_rcc.o(.text)
    RCC_RTCCLKCmd                            0x08001bcf   Thumb Code     8  stm32f10x_rcc.o(.text)
    RCC_GetClocksFreq                        0x08001bd7   Thumb Code   192  stm32f10x_rcc.o(.text)
    RCC_AHBPeriphClockCmd                    0x08001c97   Thumb Code    26  stm32f10x_rcc.o(.text)
    RCC_APB2PeriphClockCmd                   0x08001cb1   Thumb Code    26  stm32f10x_rcc.o(.text)
    RCC_APB1PeriphClockCmd                   0x08001ccb   Thumb Code    26  stm32f10x_rcc.o(.text)
    RCC_APB2PeriphResetCmd                   0x08001ce5   Thumb Code    26  stm32f10x_rcc.o(.text)
    RCC_APB1PeriphResetCmd                   0x08001cff   Thumb Code    26  stm32f10x_rcc.o(.text)
    RCC_BackupResetCmd                       0x08001d19   Thumb Code     8  stm32f10x_rcc.o(.text)
    RCC_ClockSecuritySystemCmd               0x08001d21   Thumb Code     6  stm32f10x_rcc.o(.text)
    RCC_MCOConfig                            0x08001d27   Thumb Code     6  stm32f10x_rcc.o(.text)
    RCC_ClearFlag                            0x08001d2d   Thumb Code    14  stm32f10x_rcc.o(.text)
    RCC_GetITStatus                          0x08001d3b   Thumb Code    20  stm32f10x_rcc.o(.text)
    RCC_ClearITPendingBit                    0x08001d4f   Thumb Code     6  stm32f10x_rcc.o(.text)
    FLASH_SetLatency                         0x08001d79   Thumb Code    18  stm32f10x_flash.o(.text)
    FLASH_HalfCycleAccessCmd                 0x08001d8b   Thumb Code    22  stm32f10x_flash.o(.text)
    FLASH_PrefetchBufferCmd                  0x08001da1   Thumb Code    22  stm32f10x_flash.o(.text)
    FLASH_Unlock                             0x08001db7   Thumb Code    12  stm32f10x_flash.o(.text)
    FLASH_UnlockBank1                        0x08001dc3   Thumb Code    12  stm32f10x_flash.o(.text)
    FLASH_Lock                               0x08001dcf   Thumb Code    14  stm32f10x_flash.o(.text)
    FLASH_LockBank1                          0x08001ddd   Thumb Code    14  stm32f10x_flash.o(.text)
    FLASH_GetBank1Status                     0x08001deb   Thumb Code    48  stm32f10x_flash.o(.text)
    FLASH_WaitForLastOperation               0x08001e1b   Thumb Code    38  stm32f10x_flash.o(.text)
    FLASH_ErasePage                          0x08001e41   Thumb Code    72  stm32f10x_flash.o(.text)
    FLASH_EraseAllPages                      0x08001e89   Thumb Code    68  stm32f10x_flash.o(.text)
    FLASH_WaitForLastBank1Operation          0x08001ecd   Thumb Code    38  stm32f10x_flash.o(.text)
    FLASH_EraseAllBank1Pages                 0x08001ef3   Thumb Code    68  stm32f10x_flash.o(.text)
    FLASH_GetReadOutProtectionStatus         0x08001f37   Thumb Code    20  stm32f10x_flash.o(.text)
    FLASH_EraseOptionBytes                   0x08001f4b   Thumb Code   150  stm32f10x_flash.o(.text)
    FLASH_ProgramWord                        0x08001fe1   Thumb Code   102  stm32f10x_flash.o(.text)
    FLASH_ProgramHalfWord                    0x08002047   Thumb Code    60  stm32f10x_flash.o(.text)
    FLASH_ProgramOptionByteData              0x08002083   Thumb Code    72  stm32f10x_flash.o(.text)
    FLASH_EnableWriteProtection              0x080020cb   Thumb Code   200  stm32f10x_flash.o(.text)
    FLASH_ReadOutProtection                  0x08002193   Thumb Code   156  stm32f10x_flash.o(.text)
    FLASH_UserOptionByteConfig               0x0800222f   Thumb Code    88  stm32f10x_flash.o(.text)
    FLASH_GetUserOptionByte                  0x08002287   Thumb Code     8  stm32f10x_flash.o(.text)
    FLASH_GetWriteProtectionOptionByte       0x0800228f   Thumb Code     6  stm32f10x_flash.o(.text)
    FLASH_GetPrefetchBufferStatus            0x08002295   Thumb Code    20  stm32f10x_flash.o(.text)
    FLASH_ITConfig                           0x080022a9   Thumb Code    26  stm32f10x_flash.o(.text)
    FLASH_GetFlagStatus                      0x080022c3   Thumb Code    42  stm32f10x_flash.o(.text)
    FLASH_ClearFlag                          0x080022ed   Thumb Code     6  stm32f10x_flash.o(.text)
    FLASH_GetStatus                          0x080022f3   Thumb Code    48  stm32f10x_flash.o(.text)
    NVIC_PriorityGroupConfig                 0x08002335   Thumb Code    10  misc.o(.text)
    NVIC_Init                                0x0800233f   Thumb Code   100  misc.o(.text)
    NVIC_SetVectorTable                      0x080023a3   Thumb Code    14  misc.o(.text)
    NVIC_SystemLPConfig                      0x080023b1   Thumb Code    34  misc.o(.text)
    SysTick_CLKSourceConfig                  0x080023d3   Thumb Code    40  misc.o(.text)
    Reset_Handler                            0x08002411   Thumb Code     8  startup_stm32f10x_md.o(.text)
    ADC1_2_IRQHandler                        0x0800242b   Thumb Code     0  startup_stm32f10x_md.o(.text)
    CAN1_RX1_IRQHandler                      0x0800242b   Thumb Code     0  startup_stm32f10x_md.o(.text)
    CAN1_SCE_IRQHandler                      0x0800242b   Thumb Code     0  startup_stm32f10x_md.o(.text)
    DMA1_Channel1_IRQHandler                 0x0800242b   Thumb Code     0  startup_stm32f10x_md.o(.text)
    DMA1_Channel2_IRQHandler                 0x0800242b   Thumb Code     0  startup_stm32f10x_md.o(.text)
    DMA1_Channel3_IRQHandler                 0x0800242b   Thumb Code     0  startup_stm32f10x_md.o(.text)
    DMA1_Channel4_IRQHandler                 0x0800242b   Thumb Code     0  startup_stm32f10x_md.o(.text)
    DMA1_Channel5_IRQHandler                 0x0800242b   Thumb Code     0  startup_stm32f10x_md.o(.text)
    DMA1_Channel6_IRQHandler                 0x0800242b   Thumb Code     0  startup_stm32f10x_md.o(.text)
    DMA1_Channel7_IRQHandler                 0x0800242b   Thumb Code     0  startup_stm32f10x_md.o(.text)
    EXTI0_IRQHandler                         0x0800242b   Thumb Code     0  startup_stm32f10x_md.o(.text)
    EXTI15_10_IRQHandler                     0x0800242b   Thumb Code     0  startup_stm32f10x_md.o(.text)
    EXTI1_IRQHandler                         0x0800242b   Thumb Code     0  startup_stm32f10x_md.o(.text)
    EXTI2_IRQHandler                         0x0800242b   Thumb Code     0  startup_stm32f10x_md.o(.text)
    EXTI3_IRQHandler                         0x0800242b   Thumb Code     0  startup_stm32f10x_md.o(.text)
    EXTI4_IRQHandler                         0x0800242b   Thumb Code     0  startup_stm32f10x_md.o(.text)
    EXTI9_5_IRQHandler                       0x0800242b   Thumb Code     0  startup_stm32f10x_md.o(.text)
    FLASH_IRQHandler                         0x0800242b   Thumb Code     0  startup_stm32f10x_md.o(.text)
    I2C1_ER_IRQHandler                       0x0800242b   Thumb Code     0  startup_stm32f10x_md.o(.text)
    I2C1_EV_IRQHandler                       0x0800242b   Thumb Code     0  startup_stm32f10x_md.o(.text)
    I2C2_ER_IRQHandler                       0x0800242b   Thumb Code     0  startup_stm32f10x_md.o(.text)
    I2C2_EV_IRQHandler                       0x0800242b   Thumb Code     0  startup_stm32f10x_md.o(.text)
    PVD_IRQHandler                           0x0800242b   Thumb Code     0  startup_stm32f10x_md.o(.text)
    RCC_IRQHandler                           0x0800242b   Thumb Code     0  startup_stm32f10x_md.o(.text)
    RTCAlarm_IRQHandler                      0x0800242b   Thumb Code     0  startup_stm32f10x_md.o(.text)
    RTC_IRQHandler                           0x0800242b   Thumb Code     0  startup_stm32f10x_md.o(.text)
    SPI1_IRQHandler                          0x0800242b   Thumb Code     0  startup_stm32f10x_md.o(.text)
    SPI2_IRQHandler                          0x0800242b   Thumb Code     0  startup_stm32f10x_md.o(.text)
    TAMPER_IRQHandler                        0x0800242b   Thumb Code     0  startup_stm32f10x_md.o(.text)
    TIM1_BRK_IRQHandler                      0x0800242b   Thumb Code     0  startup_stm32f10x_md.o(.text)
    TIM1_CC_IRQHandler                       0x0800242b   Thumb Code     0  startup_stm32f10x_md.o(.text)
    TIM1_TRG_COM_IRQHandler                  0x0800242b   Thumb Code     0  startup_stm32f10x_md.o(.text)
    TIM1_UP_IRQHandler                       0x0800242b   Thumb Code     0  startup_stm32f10x_md.o(.text)
    TIM2_IRQHandler                          0x0800242b   Thumb Code     0  startup_stm32f10x_md.o(.text)
    TIM3_IRQHandler                          0x0800242b   Thumb Code     0  startup_stm32f10x_md.o(.text)
    TIM4_IRQHandler                          0x0800242b   Thumb Code     0  startup_stm32f10x_md.o(.text)
    USART3_IRQHandler                        0x0800242b   Thumb Code     0  startup_stm32f10x_md.o(.text)
    USBWakeUp_IRQHandler                     0x0800242b   Thumb Code     0  startup_stm32f10x_md.o(.text)
    USB_HP_CAN1_TX_IRQHandler                0x0800242b   Thumb Code     0  startup_stm32f10x_md.o(.text)
    USB_LP_CAN1_RX0_IRQHandler               0x0800242b   Thumb Code     0  startup_stm32f10x_md.o(.text)
    WWDG_IRQHandler                          0x0800242b   Thumb Code     0  startup_stm32f10x_md.o(.text)
    _sys_exit                                0x08002435   Thumb Code     6  usart.o(.text)
    fputc                                    0x0800243b   Thumb Code    24  usart.o(.text)
    uart_init                                0x08002453   Thumb Code   158  usart.o(.text)
    uart2_init                               0x080024f1   Thumb Code   160  usart.o(.text)
    USART1_IRQHandler                        0x08002591   Thumb Code    14  usart.o(.text)
    USART2_IRQHandler                        0x0800259f   Thumb Code    40  usart.o(.text)
    delay_init                               0x080025dd   Thumb Code    50  delay.o(.text)
    delay_us                                 0x0800260f   Thumb Code    72  delay.o(.text)
    delay_ms                                 0x08002657   Thumb Code    72  delay.o(.text)
    NVIC_Configuration                       0x080026b1   Thumb Code    12  sys.o(.text)
    protocol_init                            0x080026bd   Thumb Code    16  protocol.o(.text)
    protocol_write_buf_list                  0x080026cd   Thumb Code    62  protocol.o(.text)
    protocol_send_full_cmd                   0x0800270b   Thumb Code   196  protocol.o(.text)
    protocol_heartbeat                       0x080027cf   Thumb Code    62  protocol.o(.text)
    protocol_receive_reset                   0x0800280d   Thumb Code    18  protocol.o(.text)
    protocol_check_sum                       0x0800281f   Thumb Code     6  protocol.o(.text)
    protocol_receive_data                    0x08002825   Thumb Code   192  protocol.o(.text)
    protocol_read_buf_list                   0x080028e5   Thumb Code    60  protocol.o(.text)
    protocol_cmd_loop                        0x08002921   Thumb Code    22  protocol.o(.text)
    protocol_common_reply                    0x08002937   Thumb Code    28  protocol.o(.text)
    strcat                                   0x0800298d   Thumb Code    24  strcat.o(.text)
    strstr                                   0x080029a5   Thumb Code    36  strstr.o(.text)
    strlen                                   0x080029c9   Thumb Code    14  strlen.o(.text)
    __aeabi_uidiv                            0x080029d7   Thumb Code     0  uidiv.o(.text)
    __aeabi_uidivmod                         0x080029d7   Thumb Code    44  uidiv.o(.text)
    __scatterload                            0x08002a05   Thumb Code    28  init.o(.text)
    __scatterload_rt2                        0x08002a05   Thumb Code     0  init.o(.text)
    __0printf$3                              0x08002a29   Thumb Code    22  printf3.o(i.__0printf$3)
    __1printf$3                              0x08002a29   Thumb Code     0  printf3.o(i.__0printf$3)
    __2printf                                0x08002a29   Thumb Code     0  printf3.o(i.__0printf$3)
    __0sprintf$3                             0x08002a49   Thumb Code    34  printf3.o(i.__0sprintf$3)
    __1sprintf$3                             0x08002a49   Thumb Code     0  printf3.o(i.__0sprintf$3)
    __2sprintf                               0x08002a49   Thumb Code     0  printf3.o(i.__0sprintf$3)
    __scatterload_copy                       0x08002a71   Thumb Code    14  handlers.o(i.__scatterload_copy)
    __scatterload_null                       0x08002a7f   Thumb Code     2  handlers.o(i.__scatterload_null)
    __scatterload_zeroinit                   0x08002a81   Thumb Code    14  handlers.o(i.__scatterload_zeroinit)
    Region$$Table$$Base                      0x08002c54   Number         0  anon$$obj.o(Region$$Table)
    Region$$Table$$Limit                     0x08002c74   Number         0  anon$$obj.o(Region$$Table)
    SystemCoreClock                          0x20000000   Data           4  system_stm32f10x.o(.data)
    AHBPrescTable                            0x20000004   Data          16  system_stm32f10x.o(.data)
    strx                                     0x20000014   Data           4  m26.o(.data)
    Readystrx                                0x20000018   Data           4  m26.o(.data)
    Errstrx                                  0x2000001c   Data           4  m26.o(.data)
    RecID                                    0x20000020   Data           1  m26.o(.data)
    getdata                                  0x20000021   Data           3  m26.o(.data)
    __stdout                                 0x20000038   Data           4  usart.o(.data)
    RxCounter                                0x2000003c   Data           4  usart.o(.data)
    USART_RX_STA                             0x20000040   Data           2  usart.o(.data)
    receive_last_char                        0x20000048   Data           1  protocol.o(.data)
    receive_curr_index                       0x2000004c   Data           4  protocol.o(.data)
    imei                                     0x20000054   Data           4  protocol.o(.data)
    protocol_head                            0x20000058   Data           1  protocol.o(.data)
    LongLatistr                              0x2000005c   Data         100  m26.o(.bss)
    lbs                                      0x200000c0   Data          24  m26.o(.bss)
    RxBuffer                                 0x200000d8   Data         300  usart.o(.bss)
    send_buf_list                            0x20000330   Data          92  protocol.o(.bss)
    __initial_sp                             0x20000b10   Data           0  startup_stm32f10x_md.o(STACK)



==============================================================================

Memory Map of the image

  Image Entry point : 0x080000ed

  Load Region LR_IROM1 (Base: 0x08000000, Size: 0x00002cd0, Max: 0x00010000, ABSOLUTE)

    Execution Region ER_IROM1 (Exec base: 0x08000000, Load base: 0x08000000, Size: 0x00002c74, Max: 0x00010000, ABSOLUTE)

    Exec Addr    Load Addr    Size         Type   Attr      Idx    E Section Name        Object

    0x08000000   0x08000000   0x000000ec   Data   RO          291    RESET               startup_stm32f10x_md.o
    0x080000ec   0x080000ec   0x00000000   Code   RO          365  * .ARM.Collect$$$$00000000  mc_w.l(entry.o)
    0x080000ec   0x080000ec   0x00000004   Code   RO          635    .ARM.Collect$$$$00000001  mc_w.l(entry2.o)
    0x080000f0   0x080000f0   0x00000004   Code   RO          638    .ARM.Collect$$$$00000004  mc_w.l(entry5.o)
    0x080000f4   0x080000f4   0x00000000   Code   RO          640    .ARM.Collect$$$$00000008  mc_w.l(entry7b.o)
    0x080000f4   0x080000f4   0x00000000   Code   RO          642    .ARM.Collect$$$$0000000A  mc_w.l(entry8b.o)
    0x080000f4   0x080000f4   0x00000008   Code   RO          643    .ARM.Collect$$$$0000000B  mc_w.l(entry9a.o)
    0x080000fc   0x080000fc   0x00000000   Code   RO          645    .ARM.Collect$$$$0000000D  mc_w.l(entry10a.o)
    0x080000fc   0x080000fc   0x00000000   Code   RO          647    .ARM.Collect$$$$0000000F  mc_w.l(entry11a.o)
    0x080000fc   0x080000fc   0x00000004   Code   RO          636    .ARM.Collect$$$$00002712  mc_w.l(entry2.o)
    0x08000100   0x08000100   0x00000134   Code   RO            1    .text               main.o
    0x08000234   0x08000234   0x0000001a   Code   RO           89    .text               stm32f10x_it.o
    0x0800024e   0x0800024e   0x00000002   PAD
    0x08000250   0x08000250   0x0000024c   Code   RO          124    .text               system_stm32f10x.o
    0x0800049c   0x0800049c   0x00000084   Code   RO          142    .text               led.o
    0x08000520   0x08000520   0x0000002c   Code   RO          154    .text               wdg.o
    0x0800054c   0x0800054c   0x00000c04   Code   RO          169    .text               m26.o
    0x08001150   0x08001150   0x000000de   Code   RO          189    .text               hex_str.o
    0x0800122e   0x0800122e   0x00000002   PAD
    0x08001230   0x08001230   0x0000035c   Code   RO          204    .text               stm32f10x_gpio.o
    0x0800158c   0x0800158c   0x00000040   Code   RO          216    .text               stm32f10x_iwdg.o
    0x080015cc   0x080015cc   0x00000408   Code   RO          228    .text               stm32f10x_usart.o
    0x080019d4   0x080019d4   0x000003a4   Code   RO          240    .text               stm32f10x_rcc.o
    0x08001d78   0x08001d78   0x000005bc   Code   RO          254    .text               stm32f10x_flash.o
    0x08002334   0x08002334   0x000000dc   Code   RO          266    .text               misc.o
    0x08002410   0x08002410   0x00000024   Code   RO          292    .text               startup_stm32f10x_md.o
    0x08002434   0x08002434   0x000001a8   Code   RO          296    .text               usart.o
    0x080025dc   0x080025dc   0x000000d4   Code   RO          316    .text               delay.o
    0x080026b0   0x080026b0   0x0000000c   Code   RO          330    .text               sys.o
    0x080026bc   0x080026bc   0x000002d0   Code   RO          342    .text               protocol.o
    0x0800298c   0x0800298c   0x00000018   Code   RO          368    .text               mc_w.l(strcat.o)
    0x080029a4   0x080029a4   0x00000024   Code   RO          370    .text               mc_w.l(strstr.o)
    0x080029c8   0x080029c8   0x0000000e   Code   RO          372    .text               mc_w.l(strlen.o)
    0x080029d6   0x080029d6   0x0000002c   Code   RO          649    .text               mc_w.l(uidiv.o)
    0x08002a02   0x08002a02   0x00000002   PAD
    0x08002a04   0x08002a04   0x00000024   Code   RO          664    .text               mc_w.l(init.o)
    0x08002a28   0x08002a28   0x00000020   Code   RO          463    i.__0printf$3       mc_w.l(printf3.o)
    0x08002a48   0x08002a48   0x00000028   Code   RO          465    i.__0sprintf$3      mc_w.l(printf3.o)
    0x08002a70   0x08002a70   0x0000000e   Code   RO          676    i.__scatterload_copy  mc_w.l(handlers.o)
    0x08002a7e   0x08002a7e   0x00000002   Code   RO          677    i.__scatterload_null  mc_w.l(handlers.o)
    0x08002a80   0x08002a80   0x0000000e   Code   RO          678    i.__scatterload_zeroinit  mc_w.l(handlers.o)
    0x08002a8e   0x08002a8e   0x00000002   PAD
    0x08002a90   0x08002a90   0x000001b8   Code   RO          470    i._printf_core      mc_w.l(printf3.o)
    0x08002c48   0x08002c48   0x0000000a   Code   RO          472    i._sputc            mc_w.l(printf3.o)
    0x08002c52   0x08002c52   0x00000002   PAD
    0x08002c54   0x08002c54   0x00000020   Data   RO          674    Region$$Table       anon$$obj.o


    Execution Region RW_IRAM1 (Exec base: 0x20000000, Load base: 0x08002c74, Size: 0x00000b10, Max: 0x00005000, ABSOLUTE)

    Exec Addr    Load Addr    Size         Type   Attr      Idx    E Section Name        Object

    0x20000000   0x08002c74   0x00000014   Data   RW          125    .data               system_stm32f10x.o
    0x20000014   0x08002c88   0x00000010   Data   RW          171    .data               m26.o
    0x20000024   0x08002c98   0x00000014   Data   RW          241    .data               stm32f10x_rcc.o
    0x20000038   0x08002cac   0x0000000a   Data   RW          298    .data               usart.o
    0x20000042   0x08002cb6   0x00000004   Data   RW          317    .data               delay.o
    0x20000046   0x08002cba   0x00000002   PAD
    0x20000048   0x08002cbc   0x00000011   Data   RW          344    .data               protocol.o
    0x20000059   0x08002ccd   0x00000003   PAD
    0x2000005c        -       0x0000007c   Zero   RW          170    .bss                m26.o
    0x200000d8        -       0x0000012c   Zero   RW          297    .bss                usart.o
    0x20000204        -       0x0000050c   Zero   RW          343    .bss                protocol.o
    0x20000710        -       0x00000400   Zero   RW          289    STACK               startup_stm32f10x_md.o


==============================================================================

Image component sizes


      Code (inc. data)   RO Data    RW Data    ZI Data      Debug   Object Name

         0          0          0          0          0         32   core_cm3.o
       212         18          0          4          0       1047   delay.o
       222          0          0          0          0       1251   hex_str.o
       132         10          0          0          0        551   led.o
      3076        788          0         16        124       4633   m26.o
       308        154          0          0          0     238439   main.o
       220         22          0          0          0       1809   misc.o
       720         58          0         17       1292       4082   protocol.o
        36          8        236          0       1024        800   startup_stm32f10x_md.o
      1468         34          0          0          0       8218   stm32f10x_flash.o
       860         38          0          0          0       5745   stm32f10x_gpio.o
        26          0          0          0          0       1186   stm32f10x_it.o
        64          6          0          0          0       1285   stm32f10x_iwdg.o
       932         36          0         20          0       8932   stm32f10x_rcc.o
      1032         22          0          0          0       8468   stm32f10x_usart.o
        12          0          0          0          0        457   sys.o
       588         36          0         20          0       2009   system_stm32f10x.o
       424         22          0         10        300       3713   usart.o
        44          0          0          0          0        666   wdg.o

    ----------------------------------------------------------------------
     10380       1252        268         92       2740     293323   Object Totals
         0          0         32          0          0          0   (incl. Generated)
         4          0          0          5          0          0   (incl. Padding)

    ----------------------------------------------------------------------

      Code (inc. data)   RO Data    RW Data    ZI Data      Debug   Library Member Name

         0          0          0          0          0          0   entry.o
         0          0          0          0          0          0   entry10a.o
         0          0          0          0          0          0   entry11a.o
         8          4          0          0          0          0   entry2.o
         4          0          0          0          0          0   entry5.o
         0          0          0          0          0          0   entry7b.o
         0          0          0          0          0          0   entry8b.o
         8          4          0          0          0          0   entry9a.o
        30          0          0          0          0          0   handlers.o
        36          8          0          0          0         68   init.o
       522         20          0          0          0        336   printf3.o
        24          0          0          0          0         68   strcat.o
        14          0          0          0          0         68   strlen.o
        36          0          0          0          0         80   strstr.o
        44          0          0          0          0         80   uidiv.o

    ----------------------------------------------------------------------
       732         36          0          0          0        700   Library Totals
         6          0          0          0          0          0   (incl. Padding)

    ----------------------------------------------------------------------

      Code (inc. data)   RO Data    RW Data    ZI Data      Debug   Library Name

       726         36          0          0          0        700   mc_w.l

    ----------------------------------------------------------------------
       732         36          0          0          0        700   Library Totals

    ----------------------------------------------------------------------

==============================================================================


      Code (inc. data)   RO Data    RW Data    ZI Data      Debug   

     11112       1288        268         92       2740     292407   Grand Totals
     11112       1288        268         92       2740     292407   ELF Image Totals
     11112       1288        268         92          0          0   ROM Totals

==============================================================================

    Total RO  Size (Code + RO Data)                11380 (  11.11kB)
    Total RW  Size (RW Data + ZI Data)              2832 (   2.77kB)
    Total ROM Size (Code + RO Data + RW Data)      11472 (  11.20kB)

==============================================================================

