:020000040800F2
:10000000402300207D0200088502000887020008C6
:10001000890200088B0200088D0200080000000021
:100020000000000000000000000000008F02000837
:10003000910200080000000093020008412300081C
:10004000970200089702000897020008970200082C
:10005000970200089702000897020008970200081C
:10006000970200089702000897020008970200080C
:1000700097020008970200089702000897020008FC
:1000800097020008970200089702000897020008EC
:1000900097020008C51C0008970200089702000894
:1000A00097020008970200089702000897020008CC
:1000B00097020008970200089702000897020008BC
:1000C00097020008970200089702000897020008AC
:1000D00097020008E923000849240008A924000821
:1000E00097020008970200089702000800F002F843
:1000F00000F0B4F80AA090E8000C82448344AAF10E
:100100000107DA4501D100F0A9F8AFF2090EBAE80B
:100110000F0013F0010F18BFFB1A43F0010318473B
:10012000D0460000F04600000A444FF0000C10F8E2
:10013000013B13F0070408BF10F8014B1D1108BF65
:1001400010F8015B641E05D010F8016B641E01F805
:10015000016BF9D113F0080F1EBF10F8014BAD1C55
:100160000C1B09D16D1E58BF01F801CBFAD505E073
:1001700014F8016B01F8016B6D1EF9D59142D6D3CD
:10018000704700000023002400250026103A28BFF5
:1001900078C1FBD8520728BF30C148BF0B607047F9
:1001A0006E2900F0F981702900F03B83662904F084
:1001B000B182652904F0AE82672904F0AB8261291F
:1001C000AFF3008003681B0A28BF41F08001692952
:1001D00000F0A681642900F0A381752900F0A081B8
:1001E0006F2900F0C882782900F00783E92900F020
:1001F0006382E42900F06082F52900F05D82EF2936
:1002000000F0C582F82900F006830368DB0928BFE7
:1002100041F08001632900F0CE86732900F0D38677
:10022000E32900F0DE86F32900F0E3860020704722
:100230001FB500F0F0F800F075FF04000020002169
:1002400004F03CFA401C60600020002104F04CFAED
:10025000E06000F0EDF81FBD10B510BD00F03CFFF0
:100260001146FFF7E5FF04F071F901F01FF803B440
:10027000FFF7F2FF03BC01F063F800000948804774
:1002800009480047FEE7FEE7FEE7FEE7FEE7FEE778
:10029000FEE7FEE7FEE7FEE704480549054A064B90
:1002A0007047000089230008ED000008401D002071
:1002B00040230020401F0020401F002053EA020C72
:1002C00000F069802DE9F04B4FF00006002B1FBFB6
:1002D000B3FA83F503FA05F424FA05F65E4012BF7B
:1002E0001643B2FA82F502FA05F4C5F120051EBFE5
:1002F00022FA05FC44EA0C04203556EA044C4FEA85
:10030000144418BF641C4FF000084FF000099042DD
:1003100071EB030C39D3002919BFB1FA81F701FA47
:1003200007F6B0FA80F700FA07F6C7F120071EBFFC
:1003300020FA07FC46EA0C062037B6FBF4FCA7EBD4
:100340000507103F07F01F0BCBF120060CFA0BFB43
:100350002CFA06F644BFB3460026202FA4BF5E4603
:100360004FF0000B5BEA060C08BF4FF0010B19EBD6
:100370000B09ABFB027C48EB0608C01B06FB02CC5A
:100380000BFB03CC71EB0C01C1E70B460246414667
:100390004846BDE8F08B13B54FF000004FF0000168
:1003A000AFF30080BDE81C40704700001CB50C4650
:1003B000064B7B4469460090204600F006F904464F
:1003C0000020694600F014F920461CBD3B020000E5
:1003D00070B5064600F03EF80468054630460A222D
:1003E000002100F0EDFA2C6070BD00000B4910B543
:1003F000A1F17C020A4CC2E93712372106E000EB7A
:10040000104342F82130074B00FB03400B1EA1F1C3
:100410000101F4DC10BD0120E8E70000781C002099
:10042000E119D666CD0D0100704770477047000096
:1004300070B5064C7C44064D7D4403E020682044A2
:100440008047241DAC42F9D170BD00000445000076
:100450001045000000487047E01C002070B50446BD
:1004600085690068C10601D5302600E02026C00756
:1004700007D070BDD4E9012130469047206A401C66
:1004800020626D1EF6D570BD70B504468569007892
:10049000C00707D170BDD4E9012120209047206A10
:1004A000401C20626D1EF6D570BD09684A0501D555
:1004B00040B27047C905FCD500B2704709684A05CB
:1004C00001D5C0B27047C905FCD580B2704770B580
:1004D0000C460546012A05D02878800600D5EA6931
:1004E000002302E0012305E05B1C934202D2E05CA2
:1004F0000028F9D1A869E618C01AA861286A18442A
:1005000028622846FFF7AAFF04E0D5E9012114F884
:10051000010B9047B442F8D32846FFF7B5FF70BDF2
:100520002DE9F0410646002410687529314616A5CC
:1005300010D0FFF7BAFF002802DA404213A507E007
:1005400031688A0701D512A502E0490704D511A533
:10055000012401E0FFF7B2FF00210A2206F124077F
:1005600009E0B0FBF2FCB0FBF2F302FB1C00303000
:1005700078541846491C0028F3D123462A463046B1
:10058000BDE8F04100F0A5BA000000002D00000019
:100590002B0000002000000011680268006A53056B
:1005A00001D508700AE0D30501D5088006E01306DE
:1005B00003D5C217C1E9000200E0086001207047BE
:1005C00001694A1C02610878704700B58FB0CDE917
:1005D00001310021059105497944CDE90310114607
:1005E000684600F029F90FB000BD0000E5FFFFFFED
:1005F0000A6802F8010B0A60704700002DE9FF5FEE
:1006000015468A460446DFF8AC80F8440027D8E94E
:1006100000103E46CDE9001010E03AF816106A4688
:1006200002A800F039FD411C07D02178890603D5C6
:10063000E269391891420DD80744761C207880066B
:1006400002D5E069B84205DDAE42E6DB3AF81600B5
:100650000028E2D1A069C01BA0612046FFF7FEFE82
:10066000D8E90010CDE90010002017E03AF8181082
:100670006A4602A800F010FDB0F1FF3F81460BD0A2
:1006800000250DF1080B05E0D4E901211BF8050058
:1006900090476D1C4D45F7D308F10100B0428046EC
:1006A000E4DB206A384420622046FFF7EDFEBDE817
:1006B000FF9F00000A4100002DE9F0418046D21D55
:1006C00022F007020025D2E90002F52915A614D070
:1006D000011E72F1000106DA0023D0EB030063EB88
:1006E000020211A608E0D8F800108B0701D50FA66A
:1006F00002E0490701D50EA601251146002408F1A4
:10070000240704E000F0A0F930323A55641C50EAA6
:100710000102F7D12B46324621464046BDE8F04162
:1007200000F0D7B9000000002D0000002B000000F1
:100730002000000030B4002100F1240408E002F0A1
:100740000705D208303542EA4372DB086554491C7C
:1007500052EA0305F3D10468002310A2250707D548
:10076000A40600D421B1C46901230DA2641EC46192
:1007700030BC00F0AEB910B5044621461068FFF752
:100780009DFE02462046BDE810400023D2E7D21D60
:1007900022F00701D1E90023CCE7000000000000AF
:1007A00030000000F0B40D460188090502D5214C47
:1007B0007C4402E01F4C7C440E34002100F12406EE
:1007C00008E002F00F071209E75D42EA03721B0915
:1007D0007754491C52EA0307F3D102780023120729
:1007E00004D5702D06D009B1022311342246F0BC85
:1007F00000F06FB901231034F8E770B504460D46D8
:1008000021461068FFF75AFE024629462046BDE8F9
:1008100070400023C6E7D21D22F00703D3E900236E
:10082000C0E70368126843F0200303600823C36134
:100830000023B7E76C3F00002DE9F05F89460446CE
:100840004FF0000ADFF874B1FB44C0F820A0204646
:10085000E1688847002874D0252806D0D4E9012112
:100860009047206A401C2062F1E700265F46204640
:10087000E16888472028054607DB312D05D2781925
:1008800010F8200C08B10643F1E7B00701D526F0B7
:100890000406C4F81CA00027C4F818A02A2D09D00B
:1008A000284603F0C1FD38B304EB8708303DC8F893
:1008B000185019E059F8041B204604EB8702916197
:1008C000E1688847012F054618D1E069002820DA41
:1008D00026F020061DE0D8F8180000EB800005EB9C
:1008E00040003038C8F818002046E16888470546BF
:1008F00003F09AFD0028EED1012F0AD02E2D08D149
:100900002046E16888477F1C0546022F46F02006F6
:10091000C4DBA069002803DA404246F00106A0616A
:10092000F00701D026F010066C2D0BD0682D09D0F1
:100930004C2D39D06A2D35D0742D35D07A2D33D049
:1009400016E038E0E1682F4620468847B842054661
:1009500009D16C2F26D04FF48060E1680643204611
:100960008847054604E06C2F1AD04FF48070064388
:100970000DB3A5F14100192802D8203546F40066D0
:100980004A462946204626604E46FFF709FC80B1BC
:1009900001280BD0F61D26F0070000F1080956E7E4
:1009A0004020E4E78020D8E70020D6E706F10409DC
:1009B0004DE7284652E7206ABDE8F09FFC3E000064
:1009C0002DE9F04791460F4680460446002614F86C
:1009D000015B2DB100F030F80068405DC007F6D132
:1009E0002B2D02D02D2D18D0641E4A4639462046A4
:1009F00000F003FB27B13968A14201D1C7F800809C
:100A00004FF0020471050BD54042002803DDFFF7CB
:100A100021FD0460A007BDE8F08746F48066E4E7A6
:100A20000028F8DAFFF716FD04606FF00040F2E7E7
:100A300000487047E01C002010B500F073FB001D5B
:100A400010BD00BF793C000030B5B0F10A024FEA9A
:100A5000900E71F100034EEA817EB0EB0E0061EB67
:100A600091014FEA101E4EEA017E10EB0E0041EBA1
:100A700011114FEA102E4EEA016E10EB0E0041EB01
:100A800011214FEA104E4EEA014E10EB0E0041EBE1
:100A90001141401841F100014FEAD00040EA417095
:100AA0004FEAD10110EB80054FEA810444EA9074CB
:100AB00044EB01046D1944EB0404521BA3414FF0B5
:100AC000000348BF0A3200D530BD401C41F100018F
:100AD00030BD2DE9F0470D4699469246044600F197
:100AE00024080168880604D5E06921F0100121601E
:100AF00000E00120A84201DD471B00E00027A169BA
:100B00007A1902EB0900081AA0612078C00602D405
:100B10002046FFF7A3FC002608E0D4E901211AF8DB
:100B200006009047206A401C761C20624E45F4DB8C
:100B30002078C0060AD52046FFF790FC06E0D4E9ED
:100B4000012130209047206A401C2062381EA7F106
:100B50000107F4DC07E0D4E9012118F8050090470B
:100B6000206A401C2062281EA5F10105F3DC204606
:100B7000FFF78AFC2078000602D50220BDE8F08746
:100B80000120FBE770472DE9FF4F0C461E464FF052
:100B9000FF378BB0D2E90001DDF860800A908A4609
:100BA000C1F30A5505B93D46002108464FF0000043
:100BB000BAF1000F00F4400005DA00EB80004FF4BA
:100BC000400101EA50004FEA9059B9F1010F00DDF0
:100BD000B9460A9850EA4A000ED044F61050A5F2E1
:100BE000FF3545432F14B8F1000F1ED07542291E62
:100BF0001EDDC9F100021CE0B8F1010F4FF000004A
:100C000001D0302103E0F24305E02154401CB04202
:100C1000FBDB30460022002121540B99C1F80880EB
:100C2000C1E900200FB0BDE8F08FBD1B6D1CDEE7F1
:100C30004A4600DA694206A800F0C6FA06AB93E815
:100C4000070003AB83E8070050460A9900F07FFBDA
:100C50008DE80700A0F500501F3800900398002D84
:100C60000ADD42F21F014A460844002303A903900B
:100C7000684600F0E8FD09E0A0F500504A461F383C
:100C8000002303A90390684600F0F2FD8DE80700F9
:100C90000004000C03D04FF0FF30410800E0104684
:100CA000B8F1000F03D00022009215461EE0751E19
:100CB00005D4FFF7C9FE303262556D1EF9D5B34633
:100CC0000122084302D000227F1C04E02078302853
:100CD00001D100227F1E002A099784D01DE0112D2A
:100CE00007DAFFF7B1FE303262556D1C50EA01029F
:100CF000F5D1084302D00098C8B10EE00021681E6B
:100D000005E0235C625C63542254401E491C81420E
:100D1000F7DBAB46A81B401E0990002004F80B002F
:100D20000B98099AC0F80880C0E9002B7AE71126D1
:100D30004FF0000857E72DE9F04F88460446D21DD2
:100D400022F0070191B0D1E90001CDE90A0102F0DA
:100D50001CFF02460B98C00F01D02D2007E0206831
:100D6000810701D52B2002E0202101EAC000032ADF
:100D7000099001D0072A05DB03464146204600F0D2
:100D8000D5F90BE12078800601D5E06900E0062066
:100D9000B8F1650F814606D0B8F1660F18D0B8F1EA
:100DA000670F70D131E00020B9F1110F009001DB25
:100DB000112301E009F101030AAA01A90CA8FFF718
:100DC000E2FEDDE90C70002609F10105834647E0EB
:100DD00001204B4600904FF000470AAA01A90CA839
:100DE000FFF7D1FEDDE90DB00C995D46002610B984
:100DF00009F101000D18B9EB050003D4C0F1FF366D
:100E000009F10105A5EB09002BE0B9F1010F01DAA9
:100E10004FF001090020B9F1110F0090484601DDA3
:100E2000112300E003460AAA01A90CA8FFF7ABFEB4
:100E3000DDE90C704D4600268346207800070AD471
:100E4000AB4500DA5D4601A8012D04DD411911F81A
:100E5000011C302907D04F4502DA17F1040F04DADC
:100E6000012082460FE06D1EEEE7002F02DCED1B35
:100E70003E4403E0781CA84200DD7D1CB81B00F155
:100E8000010A4FF000472078000703D4AA4501DB90
:100E90004FF0FF3A0021B7F1004F0DF143088DF8F4
:100EA000431024D002202B23002F01DA7F422D2370
:100EB0000A21021EA0F1010000DC5FB197FBF1FCEA
:100EC00097FBF1F201FB1C7C17460CF1300C08F883
:100ED00001CDEEE7A8F1010003702188090501D5D5
:100EE000452100E06521A0F1010800F8011C0998E6
:100EF0000FA9A1EB0807FF1D00B10120411901EB6B
:100F0000EA70A1693844081A401EA0612078C00622
:100F100002D42046FFF7A2FA099828B1D4E90121AA
:100F20009047206A401C20622078C00622D52046C7
:100F3000FFF794FA1EE0002E04DBB34502DD01A8A2
:100F4000805D00E03020D4E901219047206A401CF8
:100F50002062761CAAF101005FEA000A0AD100F0C3
:100F6000E1F8C0680168405CD4E901219047206A3B
:100F7000401C2062281EA5F10105DCDC07E0D4E955
:100F8000012118F8010B9047206A401C2062381E8E
:100F9000A7F10107F3DC2046FFF776FA032011B032
:100FA00041E610B5436913B1AFF3008001E0FFF7EC
:100FB0008EFA012010BD127800F124010A7000227F
:100FC0004A700122EDE711684FF0FF32E9E710B5F2
:100FD000436913B1AFF3008001E0FFF70FFB01207D
:100FE00010BD128800F1240182840022C2840122F3
:100FF000EDE711684FF0FF32E9E72DE9F05F824637
:1010000015468B4600270AF10104B94600783028BE
:1010100001D09DB113E014F8010B0127782803D00B
:10102000582801D045B10AE00DB1102D07D1002795
:1010300014F8010B102502E0082500E00A2500261F
:10104000B0460EE005FB080005FB06F101271FFA7C
:1010500080F801EB1046B6F5803F00D3B94614F88E
:10106000010B294600F0A2F80028EBDABBF1000FD3
:1010700005D00FB1641E00E05446CBF80040B9F132
:10108000000F06D0FFF7E6F902210160C81EBDE897
:10109000F09F48EA0640FAE770B516460C4605464A
:1010A000FFF7CAFC036893F80101012806D0FF2C62
:1010B0000FD8185D68B101202C7070BDD3F80701FE
:1010C0003246214603F2071303442846BDE8704028
:1010D00018474FF0FF3070BD7546FFF7A9FCAE46CC
:1010E00005006946534620F00700854618B020B534
:1010F000FFF7D2F8BDE820404FF000064FF00007A0
:101100004FF000084FF0000B21F00701AC46ACE8AF
:10111000C009ACE8C009ACE8C009ACE8C0098D461C
:101120007047000000487047001D00202DE9F04185
:101130001F46044603260168072A01F4006004DB09
:1011400008B116A505E016A503E008B115A500E055
:1011500015A521F010002060A069C01EA0610FB18C
:10116000401EA0612046FFF779F94FB1D4E9012173
:1011700038469047206A401C2062C01C206206E06E
:10118000206AFAE7D4E9012115F8010B9047761E91
:10119000F8D22046FFF778F9BDE8F0814E414E00C5
:1011A0006E616E00494E4600696E66003A2800D2B4
:1011B000303820F02002412A01D3A2F137008842C2
:1011C00001D34FF0FF3070472DE9F04781461646B6
:1011D0008AB0354878440DC88DE80D00324878440F
:1011E000801C03AC0DC884E80D0041F69B30084418
:1011F000372190FBF1F290FBF1F5A5F1800501FBA1
:1012000012041B3C02D56442012000E00020DFF8FC
:1012100098A080460027FA44AAF1BE0A0EE0E00733
:101220000AD03246684607EB470101230AEB8101E9
:1012300000F01EFB8DE8070064107F1C002CEED12F
:10124000194F7F44AE3F19E0E80715D007EB0410B3
:101250000DF1180A90E80E008AE80E00C068F0420E
:1012600001D1981908903246012306A903A800F07D
:10127000FFFA03AB83E807006D10641C002DE3D177
:101280004FF0010332466946B8F1000F03A802D0BF
:1012900000F0D9FA01E000F0EBFAC9E90001C9F861
:1012A00008200AB0BDE8F0870036000010B50446FB
:1012B000AFF300802046BDE81040FEF7D8BF000025
:1012C0004FF0013C50F8042B51F8043B9A4221D1D5
:1012D000A2EB0C03934313EACC1317D150F8042B61
:1012E00051F8043B9A4215D1A2EB0C03934313EA45
:1012F000CC130BD150F8042B51F8043B9A4209D17E
:10130000A2EB0C03934313EACC13DBD04FF00000A5
:10131000704700BFD01A01BAB1FA81F101F018018B
:1013200022FA01F0CB40C1F12001DBB2C0B2C01AF9
:101330002CFA01F3D11A914311EAC311E6D1704797
:1013400001491820ABBEFEE72600020070475FEAA5
:10135000400C08BF91F0000F4FEA8C234FEAC122E6
:1013600043EA51514FEA1C5018BF00F5F0404FEAD4
:10137000300018BF41F000415FEA6C5C00F029804A
:10138000BCF1FF3F08BF40F080407047130C06BF20
:1013900012044FF0100C4FF0000C130E04BF120299
:1013A0000CF1080C130F04BF12010CF1040C930F85
:1013B00004BF92000CF1020CD30F04BF52000CF1D9
:1013C000010C11464FF00002A0F11F00A0EB0C0031
:1013D000704711F0004F08BF704731F000413FF4F3
:1013E000D5AF0B0C06BF09044FF0100C4FF0000CEA
:1013F0000B0E04BF09020CF1080C0B0F04BF09010E
:101400000CF1040C8B0F04BF89000CF1020CCB0F04
:1014100004BF49000CF1010CCCF12003A0EB0C003F
:1014200022FA03F302FA0CF241EA030100F101008F
:10143000704720F07F4C80EA030023F07F47ACEB3D
:10144000070303F57C5300F0004003F1FF032DE98F
:1014500080494FEA154B09B44FEA144325EA0B4E75
:1014600024EA03480FF2042606EB132749083E78C6
:101470005FEA320203FB0667C7F5000707FB06F6C3
:101480004FEA54374FEAD64606F1020607FB066CD0
:10149000CCF1005C4FEA1C472CEA074C07FB06F432
:1014A0000CFB06F504EB15464FEA961634BF0020F8
:1014B0004FF000404FEAD13706FB07FC4FEA1C4CC7
:1014C0000CFB0BF7D21B03FB0CF761EB07010CFBCA
:1014D0000EF7B0EB074072EB17420CFB08F734BF76
:1014E000A2EB0742B2EB074261EB17414FEA0C4413
:1014F0004FEA910706FB07FC4FEA1C4C0CFB0BF76D
:10150000B0EBC74072EB573203FB0CF734BFA2EBD2
:10151000C742B2EBC74261EB57310CFB0EF7B0EBA1
:10152000C70072EB57720CFB08F734BFA2EBC7027F
:10153000B2EBC70261EB5771039F4FEA816141EA49
:10154000921104EBCC044FEAD1374FEA826206FBDA
:1015500007FC42EA90124FEA80604FEA1C4C0CFBF9
:101560000BF7D21B03FB0CF761EB07010CFB0EF72B
:10157000B0EB074072EB17420CFB08F734BFA2EB4D
:101580000742B2EB074261EB17414FEA8C554FEA35
:10159000910704EB9C2406FB07FC4FEA1C4C0CFB58
:1015A0000BF7B0EBC74072EB573203FB0CF734BFBD
:1015B000A2EBC742B2EBC74261EB57310CFB0EF70F
:1015C000B0EBC70072EB57720CFB08F734BFA2EB0D
:1015D000C702B2EBC70261EB577115EB4C254FEA1E
:1015E000816141EA92114FEA82624FEAD13742EAC1
:1015F000901206FB07FC44F100044FEA80604FEABA
:101600001C4C0CFB0BF7D21B03FB0CF761EB070127
:101610000CFB0EF7B0EB074072EB17420CFB08F720
:1016200034BFA2EB0742B2EB074261EB174115EB67
:101630001C154FEA813141EA92414FEA823242EA77
:1016400090424FEA80304FEA0C7644F1000448EAB9
:1016500003434EEA0B484FF0000EB2EB080C71EB5F
:10166000030724BF624639464EEB0E0E4FF0000BC7
:101670000018524149414BEB0B0BB2EB080C71EBDC
:1016800003077BF1000B24BF624639464EEB0E0E7A
:101690004FF0000B0018524149414BEB0B0BB2EBE2
:1016A000080C71EB03077BF1000B24BF624639463F
:1016B0004EEB0E0E51EA020718BF46F0010616EB7C
:1016C0000E7655F1000254F1000103D5BDE8890101
:1016D000BDE80088BDE88901BDE80048B61952415F
:1016E00041EB0101A3F10103704780807F7E7D7C87
:1016F0007B7A7978777676757473727171706F6EA4
:101700006E6D6C6C6B6A6A6968686766666564644E
:10171000636362616160605F5F5E5E5D5D5C5C5BD8
:101720005B5A5A5959585857575656555555545447
:10173000535352525251515050504F4F4F4E4E4DA5
:101740004D4D4C4C4C4B4B4B4A4A4A4949494848F1
:101750004847474747464646454545444444444331
:1017600043434342424242414141002B9C4630D4D4
:1017700077002BD01CB54FEA370703B44FF01000A9
:101780004FF01001BAF1000F06D0BCF1000FDCBF22
:1017900040F0080040F008014FF000000FBCBDE829
:1017A00010400BF1010BBBF1010F08BF5FEA1707F7
:1017B00022BF12F1010211F101014FF0004143F18A
:1017C000000300F0004043EA00007047F9D35708D7
:1017D000D0E746EA064613F1400F4FEA16461FDDF2
:1017E00013F1200FDFBF16430A46002120335B426E
:1017F000BED0C3F1200746EA064602FA07F74FEAD1
:10180000164646EA0706C3F1200722FA03F201FA58
:1018100007F721FA03F14FF0000342EA0702A7E7B6
:1018200046EA020646EA06464FEA164646EA010638
:10183000BCBF46EA0646360C4FF000034FF00002EC
:101840004FF0000194E72DE9804C9A46934670B41E
:1018500091E8380007C831EA400C48BF34EA430C2D
:1018600003D5FFF7E6FDFFF780FFF0BCBDE8008C75
:101870002DE9804C9A46934670B491E8380007C829
:1018800010F0804F08BF13F0804F03D100F005F82F
:10189000FFF76BFFF0BCBDE8008C20F07F4780EACB
:1018A000030023F07F4C07EB0C03A3F57C5300F0FF
:1018B0000040A3F1FE0392F0000F00F0B38095F01A
:1018C000000F00F077802DE901494FEA11404FEAFF
:1018D000144621EA004800FB06FC24EA064708FB00
:1018E00006F607FB08F800FB07F718EB06484CEB79
:1018F000164C4FEA124B18EB07484FEA15464CEBD3
:10190000174022EA0B4E0BFB06FC25EA06470EFBAE
:1019100006F607FB0EFE0BFB07F71EEB064E4CEB25
:10192000164C4FF000061EEB074E4CEB174B18EB16
:101930000B0840F1000018EB0E0B58EB000840F1CB
:1019400000008F1A4FF000013CBFC943661B14BF53
:10195000B5EB040C00213CBFC943F61B4FEA17440A
:101960004EEA8E0E27EA04454FEA1C4704FB076245
:101970002CEA074C05FB07F70CFB05F604FB0CFCF7
:1019800016EB074642EB174216EB0C4642EB1C42A5
:101990001BEB060658EB0202414146EA9E0601D5C2
:1019A000BDE80189B619524141EB0101A3F10103E0
:1019B000BDE801894FEA14454FEA114724EA05467C
:1019C00021EA074C05FB07F406FB07F70CFB06F1C1
:1019D00005FB0CFC11EB074144EB17444FEA12479F
:1019E00011EB0C4144EB1C4422EA074C05FB07F2C7
:1019F00006FB07F70CFB06F605FB0CFC16EB07468F
:101A000042EB174216EB0C4642EB1C456A1854F1A8
:101A1000000148BF7047B619524141EB0101A3F1E3
:101A20000103704795F0000F37D04FEA11424FEA9B
:101A3000144721EA024624EA074C02FB07F106FBA1
:101A400007F70CFB06F402FB0CFC14EB074441EB1C
:101A500017414FEA154714EB0C4441EB1C4125EAB2
:101A6000074C02FB07F506FB07F70CFB06F602FB2B
:101A70000CFC16EB074645EB174516EB0C4645EB01
:101A80001C42121951F1000148BF7047B61952416A
:101A900041EB0101A3F1010370474FEA14454FEAFE
:101AA000114724EA054621EA074C05FB07F106FB2E
:101AB00007F70CFB06F24FF0000605FB0CFC12EBDF
:101AC000074241EB174112EB0C4251EB1C4148BF5E
:101AD0007047921841EB0101A3F10103704721B156
:101AE000826842F00102826003E0826822F0010213
:101AF0008260704721B1826842F48072826003E0A4
:101B0000826822F4807282607047000010B504463B
:101B10001248844208D10121401500F00FFB00213A
:101B2000601500F00BFB17E00D48844208D101213D
:101B3000001500F003FB0021201500F0FFFA0BE078
:101B40000848844208D10121C80300F0F7FA0021B7
:101B50004FF4004000F0F2FA10BD000000240140F4
:101B600000280140003C0140014600208A6802F044
:101B700004020AB1012000E0002070470146002065
:101B80008A6802F008020AB1012000E000207047D4
:101B900030B502460020002350680F4C20400D79DC
:101BA0000C6844EA05242043506090680B4C2040A8
:101BB000D1E902542C434D7944EA45042043906016
:101BC000D06A20F470000C7C641EE4B2234340EA27
:101BD0000350D06230BD0000FFFEF0FFFDF7F1FFC3
:101BE000F0B504460D4600200021092D11DDE06806
:101BF000A5F10A0606EB4607072606FA07F1884311
:101C0000A5F10A0606EB460603FA06F10843E06072
:101C10000CE0206905EB4507072606FA07F1884323
:101C200005EB450603FA06F108432061072A0FDA9F
:101C3000606B561E06EB86071F2606FA07F18843DF
:101C4000561E06EB860605FA06F10843606322E09D
:101C50000D2A0FDA206BD61F06EB86071F2606FA21
:101C600007F18843D61F06EB860605FA06F10843FE
:101C7000206310E0E06AA2F10D0606EB86071F263E
:101C800006FA07F18843A2F10D0606EB860605FA6F
:101C900006F10843E062F0BD816841F0080181600F
:101CA000704721B1826842F4A002826003E082683A
:101CB00022F4A00282607047816841F004018160D3
:101CC0007047000010B504490868804701210348A7
:101CD00000F006F810BD000014040020006400406D
:101CE00021B9C26842F02002C26003E0026942F0FA
:101CF00020020261704721B1026842F001020260D5
:101D000004E002684FF6FE731A400260704700005C
:101D100001684FF6FE7211400160002101604160D0
:101D20008160C1604B49884208D14A4908394968F5
:101D300041F00F01474A083A51608AE045491431A1
:101D4000884208D143490839496841F0F001414AC5
:101D5000083A51607DE03F492831884208D13D4929
:101D60000839496841F470613A4A083A516070E0B4
:101D700038493C31884208D136490839496841F42C
:101D80007041344A083A516063E032495031884228
:101D900008D130490839496841F470212D4A083A80
:101DA000516056E02B496431884208D129490839ED
:101DB000496841F47001274A083A516049E02549D1
:101DC0007831884208D123490839496841F0706167
:101DD000204A083A51603CE01F49884206D1011F61
:101DE000096841F00F01021F116032E01A491431F5
:101DF000884208D11849091F096841F0F001164AC4
:101E0000121F116025E014492831884208D1124977
:101E1000091F096841F470610F4A121F116018E030
:101E20000D493C31884208D10B49091F096841F42A
:101E30007041094A121F11600BE007495031884276
:101E400007D10549091F096841F47021024A121F90
:101E500011607047080002400804024010B50022DB
:101E6000026847F6F0739A430C6A8B6823430C6947
:101E700023434C6923438C692343CC6923434C6A35
:101E800023438C6A23431A430260CB6843600B6888
:101E900083604B68C36010BD2DE9F0410246002508
:101EA0000026002000230024002791F803C00CF036
:101EB0000F0591F803C00CF0100CBCF1000F03D01B
:101EC00091F802C04CEA050591F800C0BCF1000F82
:101ED00031D0146800202BE04FF0010C0CFA00F315
:101EE000B1F800C00CEA03069E4220D183004FF0F7
:101EF0000F0C0CFA03F7BC4305FA03FC4CEA04048C
:101F000091F803C0BCF1280F06D14FF0010C0CFA78
:101F100000FCC2F814C00AE091F803C0BCF1480FFD
:101F200005D14FF0010C0CFA00FCC2F810C0401CA7
:101F30000828D1D31460B1F800C0BCF1FF0F34DD24
:101F4000546800202EE000F1080C4FF0010808FA58
:101F50000CF3B1F800C00CEA03069E4221D18300C5
:101F60004FF00F0C0CFA03F7BC4305FA03FC4CEAE4
:101F7000040491F803C0BCF1280F05D100F1080C4E
:101F800008FA0CF8C2F8148091F803C0BCF1480FAD
:101F900007D100F1080C4FF0010808FA0CF8C2F85C
:101FA0001080401C0828CED35460BDE8F0810000AA
:101FB000F0B50A46002300240021002500F0004669
:101FC000B6F1004F02D11D4EF16901E01B4E716860
:101FD000C0F3034583B200F44016B6F5401F08D1A4
:101FE00021F07061154E766826F07066134F7E60A2
:101FF00012E000F48016B6F5801F06D1032606FA1B
:1020000005F4A14341F0706106E0460D360103FA84
:1020100006F6B14341F0706122B1460D360103FA74
:1020200006F6314300F00046B6F1004F02D1034EF0
:10203000F16101E0014E7160F0BD0000000001405F
:1020400070B5002100230F22C47804B3154C246816
:1020500004F4E064C4F5E064210AC1F10403CA4059
:10206000447804FA03F184781440214309010E4CAA
:102070000678A155047804F01F050124AC400578CA
:102080006D11AD0005F1E025C5F8004109E00478C7
:1020900004F01F050124AC40044D0678761145F884
:1020A000264070BD0CED00E000E400E080E100E0BF
:1020B00002490143024A1160704700000000FA051E
:1020C0000CED00E001460020034A506820F4404037
:1020D00008435060704700000010024029B1064AD2
:1020E00052690243044B5A6104E0034A5269824335
:1020F000014B5A61704700000010024029B1064AA6
:10210000D2690243044BDA6104E0034AD269824394
:10211000014BDA61704700000010024029B1064A05
:1021200092690243044B9A6104E0034A9269824334
:10213000014B9A61704700000010024029B1064A25
:10214000D2680243044BDA6004E0034AD268824357
:10215000014BDA60704700000010024030B50021EA
:102160000022002400232D4D6D6805F00C0121B1E3
:10217000042905D0082923D105E0294D056022E076
:10218000274D05601FE0254D6D6805F47012234D45
:102190006D6805F48034022505EB92421CB9214D8F
:1021A000554305600BE01D4D6D6805F400351DB10C
:1021B0001C4D5543056002E0194D5543056002E092
:1021C000174D056000BF00BF144D6D6805F0F001AC
:1021D0000909154D6B5C0568DD4045600F4D6D6864
:1021E00005F4E061090A104D6B5C4568DD408560CF
:1021F0000A4D6D6805F46051C90A0B4D6B5C45686A
:10220000DD40C560054D6D6805F44041890B074D03
:102210006B5CC568B5FBF3F5056130BD001002408D
:1022200000127A0000093D0000000020100000208C
:1022300010B500F001F810BD0CB500200190009021
:102240003348006840F480303149086000BF3048AE
:10225000006800F4003000900198401C0190009844
:1022600018B90198B0F5A06FF1D12948006800F4C1
:10227000003010B10120009001E000200090009893
:10228000012843D12348006840F01000214908602C
:102290000846006820F0030008600846006840F027
:1022A000020008601A4840681949486008464068BA
:1022B00048600846406840F48060486008464068CE
:1022C00020F47C1048600846406840F4E8104860FC
:1022D0000846006840F08070086000BF0C48006845
:1022E00000F000700028F9D00948406820F0030091
:1022F000074948600846406840F00200486000BF57
:102300000348406800F00C000828F9D10CBD00001B
:102310000010024000200240042808D14FF0E021C4
:10232000096941F004014FF0E022116107E04FF02C
:10233000E021096921F004014FF0E02211617047AA
:1023400010B50E4802684068521C40F100000B496D
:102350000A6048600A480288002308684968FDF757
:10236000ADFF00214A404B401A4305D105480068A3
:1023700010B104490868804710BD0000F803002030
:102380000A0400200404002010B51348006840F03F
:1023900001001149086008464068104908400E498C
:1023A0004860084600680E4908400B490860084626
:1023B000006820F4802008600846406820F4FE0091
:1023C00048604FF41F008860FFF732FF4FF0006055
:1023D0000449086010BD0000001002400000FFF832
:1023E000FFFFF6FE08ED00E010B540F2255113485E
:1023F00000F0BBF801280AD11148006810B110495B
:102400000868804740F225510C4800F07DF840F202
:1024100026610A4800F0A9F801280DD100200949D9
:1024200008700748406810B105494868804740F285
:102430002661024800F068F810BD00000038014035
:10244000A41B00200C04002010B540F225511348B5
:1024500000F08BF801280AD11148806810B11049AA
:102460008868804740F225510C4800F04DF840F252
:1024700026610A4800F079F801280DD100200949A9
:1024800048700748C06810B10549C868804740F2E5
:102490002661024800F038F810BD000000440040FA
:1024A000A41B00200C04002010B540F22551134855
:1024B00000F05BF801280AD11148006910B11049F9
:1024C0000869804740F225510C4800F01DF840F2A1
:1024D00026610A4800F049F801280DD10020094979
:1024E00088700748406910B105494869804740F243
:1024F0002661024800F008F810BD000000480040C6
:10250000A41B00200C04002010B50022002340F67C
:102510006A14A14200D100BF0A1201249440A3B260
:10252000DC43048010BD21B1828942F400528281D3
:1025300004E082894DF6FF731A40828170471AB118
:10254000838A0B43838202E0838A8B4383827047B2
:1025500002460020B1F5007F00D100BF13880B4078
:102560000BB1012000E00020704770B50246002446
:1025700000230025002040F66A16B14200D100BFBA
:10258000C1F3421501F01F03012606FA03F3012DE2
:1025900002D19689334006E0022D02D1168A3340DB
:1025A00001E0968A33400C12012606FA04F41688DC
:1025B000344013B10CB1012000E0002070BDF0B533
:1025C0000346002400260025002040F66A17B94281
:1025D00000D100BF1846C1F3421401F01F060127C5
:1025E00007FA06F5012C01D10C3004E0022C01D1D0
:1025F000103000E014301AB107682F43076002E082
:102600000768AF430760F0BD2DE9F04786B0054687
:102610000E460024A24600BFA1460027B08900B1A3
:1026200000BF2F462C8A4CF6FF700440F08804430C
:102630002C82AC894EF6F3100440B08831890843EF
:10264000718908430443AC81AC8A4FF6FF400440D3
:10265000B0890443AC8201A8FFF780FD1F48874280
:1026600002D1DDF810A001E0DDF80CA0A88900F48B
:10267000004040B10AEBCA0000EB0A103168490083
:10268000B0FBF1F807E00AEBCA0000EB0A10316872
:102690008900B0FBF1F86420B8FBF0F004012009D8
:1026A000642101FB1089A88900F4004040B1322068
:1026B00000EBC900B0FBF1F000F00700044308E0B4
:1026C000322000EB09106421B0FBF1F000F00F00A4
:1026D00004432C8106B0BDE8F087000000380140BB
:1026E000C1F308028280704710B504462046FDF70A
:1026F0007DFE10BD00B58BB00F48FFF709FB0F48FA
:1027000000900F48019000200290102003900020BC
:1027100004908020059040000690800007902020C3
:1027200008900002099000200A9069460248FFF7CD
:1027300095FB0BB000BD0000080002404C24014096
:10274000DC1B002000B585B04848FFF7DFF900200A
:10275000009001208DF804008DF805004FF46020F2
:1027600002900020039010208DF8100069463F4829
:10277000FFF70EFA0323012200213C48FFF730FA4D
:102780000323022201213948FFF72AFA03231A46BC
:1027900002213648FFF724FA03230422194633485E
:1027A000FFF71EFA0323052204213048FFF718FA29
:1027B0000323062205212D48FFF712FA03230722DF
:1027C00006212A48FFF70CFA03230822072127488D
:1027D000FFF706FA0323092208212448FFF700FA2D
:1027E00003230A2209212148FFF7FAF903230B22C8
:1027F0000A211E48FFF7F4F903230C220B211B4882
:10280000FFF7EEF903230D220C211848FFF7E8F932
:1028100003230E220D211548FFF7E2F903230F22AF
:102820000E211248FFF7DCF9032310220F210F4875
:10283000FFF7D6F901210D48FFF75CF901210B489C
:10284000FFF74DF90948FFF727FA00BF0748FFF7E0
:1028500095F90028FAD10548FFF72EFA00BF034882
:10286000FFF782F90028FAD105B000BD002401402D
:1028700010B5024800F0C6FF10BD00007C0F00201C
:1028800010B504465448007809286FD2DFE800F0FC
:10289000050F19232D9B377680002B2C03D10120A7
:1028A0004D49087002E000204B49087092E0492C25
:1028B00003D102204849087002E000204649087010
:1028C00088E0502C03D103204349087002E0002027
:1028D000414908707EE0442C03D104203E49087031
:1028E00002E000203C49087074E02C2C03D1062043
:1028F0003949087002E00020374908706AE0302C3E
:102900000DDB392C0BDC3548B0F81014B0F810048E
:10291000401C324AA2F81004314844542DE03A2CAD
:1029200018D100212D48B0F81024B0F81004401C34
:102930002A4BA3F810042A488154FDF749FD274982
:10294000A1F8120408202449087000202349A1F8A6
:10295000100412E02C2C0AD12148007830381F498D
:10296000A1F814040020A1F8100406E02BE00020D8
:102970001A49A1F81004184908702BE03A2C03D129
:1029800008201549087002E000201349087021E072
:102990001248B0F810041149B1F8121488420BDA49
:1029A0002146104801F08BF80C48B0F81004401C88
:1029B0000A49A1F8100405E000200849A1F8100414
:1029C0000549087006E00020034908700349A1F892
:1029D000100400BF00BF10BDB70300207C0F002013
:1029E000B80300207C13002010B501F041FD4FF426
:1029F000E1310C4800F08AF90BA10A4800F006FA10
:102A000012A1084800F002FA4FF4E133184A1949BC
:102A1000194800F087FD184800F040FE174801F003
:102A20009CF810BD1C0400206573703832363620C7
:102A30007463702073696E676C6520636C69656E82
:102A40007420746573740D0A000000002D2D2D2D67
:102A50002D2D2D2D2D2D2D2D2D2D2D2D2D2D2D2DA6
:102A60002D2D2D2D2D2D2D2D2D2D2D0D0A00000060
:102A7000A4040020340000207C0F0020C0030020AC
:102A800010B501214802FFF749FB4FF40040FFF762
:102A900019FB01210846FFF721FBFFF753FEFFF763
:102AA00029FE01210348FFF7FCF801210248FFF746
:102AB00022F910BD0024014008000240016042607C
:102AC0008360704710B50024047401608260436025
:102AD00010BD2DE9F04104460D4616461F46DDF8AF
:102AE00018800020207265601821304600F010F830
:102AF0001821384600F00CF81821404600F008F87C
:102B00002046BDE8F08181880268116170470000AD
:102B100038B504460D46294A2068811A904223D0D0
:102B200009DC2749084480B1B0F5806F12D0B0F5B8
:102B3000006F2DD113E0B1F5806F1AD0B1F5006FA1
:102B40001CD0B1F5406F23D11DE001210420FFF717
:102B5000E5FA1DE001210820FFF7E0FA18E0012165
:102B60001020FFF7DBFA13E001212020FFF7D6FA4F
:102B70000EE001214020FFF7D1FA09E00121802079
:102B8000FFF7CCFA04E001210802FFF7C7FA00BF03
:102B900000BF1C2D01D0182D03D101210846FFF7DD
:102BA000BDFAA088ADF800008DF8035003208DF821
:102BB000020069462068FFF76FF938BD0014014034
:102BC00000F8FEBF81880268516170470160828011
:102BD0007047000070B504460D4616461849206837
:102BE000884201D1012000E00020164A216891426C
:102BF00001D1012100E000210843134A21689142DC
:102C000001D1012100E00021084330B100BF32466C
:102C10002946204600F038F811E00BE000BF802183
:102C20002068FFF795FC0028F9D015F8011B2068F3
:102C3000FFF756FD3000A6F101018EB2EED170BD56
:102C400000380140004400400048004070B5044690
:102C50000D461646204600F0ABF9204600F00AF972
:102C6000802E00DB8026002005E015F8012B04F102
:102C700008010A54401CB042F7DB324604F1080157
:102C80002046FFF7A7FF70BD70B504460E461546F7
:102C90006068FFF73DF82068001D61688860606823
:102CA000C6606068456042F2990061680860284625
:102CB00070BD000010B5124C0268131BA24216D062
:102CC00006DC104B1A4462B1B2F5806F15D10BE0EF
:102CD000B3F5806F0ED0B3F56C4F0ED10A4A116078
:102CE0000BE0094A916008E0074A116105E0064AD5
:102CF000916102E0044A116200BF00BF10BD0000F4
:102D0000004C004000BCFFBFA41B00207FB5044660
:102D10000D4601210846FFF7E1F9374A2068811A7C
:102D2000904224D006DC3549084480B1B0F5806F6C
:102D300027D114E0B1F5806F1ED0B1F56C4F20D1D2
:102D400001218803FFF7EAF92D48606019E00121AD
:102D50004804FFF7D3F92A483C30606011E00121B4
:102D60008804FFF7CBF926482838606009E0012184
:102D7000C804FFF7C3F904E001210805FFF7BEF915
:102D800000BF00BF00950020ADF80800ADF80400BA
:102D9000ADF80600ADF80C000C20ADF80A0069464D
:102DA0002068FFF731FC17492068884201D10120D3
:102DB00000E00020114A52422168914201D10121D4
:102DC00000E000210843104A2168914201D101210D
:102DD00000E00021084328B100BF012280212068C3
:102DE000FFF7ADFB01212068FFF79DFB0121204685
:102DF00000F070F87FBD0000004C004000BCFFBF39
:102E00004400024000380140004800400FB4F8B5CB
:102E1000044600260025204600F0CAF8204600F0AF
:102E200029F808A8009004F10800009A0799FDF716
:102E3000BDFA0020009005E0681C85B2802D01DB02
:102E4000802507E03046711C8EB204F10801085C51
:102E50000028F1D100BF2A4604F108012046FFF7FF
:102E6000B9FEF8BC5DF814FB014608688088C0F321
:102E700008007047144B0168CA1A994219D006DC41
:102E8000124A114469B1B1F5806F1AD10DE0B2F563
:102E9000806F12D0B2F56C4F13D101210C4A117022
:102EA0000FE001210A4A51700BE00121084A91709C
:102EB00007E00121064AD17003E00121044A1171A3
:102EC00000BF00BF70470000004C004000BCFFBFC7
:102ED0000C04002038B504460D462A4640F2255120
:102EE0002068FFF76CFB2A4640F226612068FFF756
:102EF00066FB40F226612B48FFF706FB2A4A206852
:102F0000811A904231D006DC28490844A8B1B0F5B6
:102F1000806F42D11DE0B1F5806F32D0B1F56C4FBA
:102F20003BD125208DF8000000208DF801008DF8A0
:102F3000020001208DF803002FE026208DF800000C
:102F400000208DF801008DF8020001208DF80300AB
:102F500023E027208DF8000000208DF801008DF877
:102F6000020001208DF8030017E034208DF80000E6
:102F700000208DF801008DF8020001208DF803007B
:102F80000BE035208DF8000000208DF801008DF851
:102F9000020001208DF8030000BF00BF6846FFF764
:102FA0004FF838BD00380140004C004000BCFFBF66
:102FB000194B0168CA1A99421FD006DC174A1144FE
:102FC00079B1B1F5806F24D111E0B2F5806F1AD0DC
:102FD000B2F56C4F1DD100BF114909780129FBD012
:102FE00017E000BF0E4949780129FBD011E000BF6E
:102FF0000B4989780129FBD00BE000BF0849C9784B
:103000000129FBD005E000BF054909790129FBD062
:1030100000BF00BF70470000004C004000BCFFBF75
:103020000C0400202DE9F04104460F4615461E46CB
:10303000276018212846FFF76BFD04213046FFF773
:1030400067FD2046BDE8F0810749096881600649AF
:10305000091D096841600449083109680160024995
:103060000839098881817047E8F7FF1FF8B50746DE
:103070000C4615461E462B46224603A138460096AE
:1030800000F0CCF9F8BD00005443500070B5044680
:1030900000250121204600F0BBF8204600F045F94C
:1030A0000CA1D4F82408FFF7B1FE4FF4FA612046D2
:1030B00000F03AFC02280AD109A204F21641204687
:1030C00000F024F8401C08B1012500E00025284646
:1030D00070BD000041542B5253540D0A00000000F3
:1030E0004F4B000010B50446D4F82008FFF76AFDE6
:1030F0006420002101F09FF9D4F82008FFF703FDB8
:103100004FF4FA70002101F096F910BDFCB50546A8
:103110000E4617460020019001A801233A46314689
:103120000090284600F030FB044614B94FF0FF3001
:10313000FCBD2046FCE700002DE9F04104460D46A9
:10314000164600270121204600F062F8204600F0D4
:10315000ECF833462A460EA1D4F82408FFF756FEB1
:1031600042F21071204600F0DFFB02280AD10EA2C5
:1031700004F216412046FFF7C9FF401C08B10127A1
:1031800000E00027002084F81D083846BDE8F081E3
:1031900041542B43574A41503D222573222C22256E
:1031A00073220D0A000000004F4B000070B504466A
:1031B0000D4600260121204600F02AF8204600F0A6
:1031C000B4F82A460DA1D4F82408FFF71FFE4FF4E7
:1031D000FA61204600F0A8FB02280AD10BA204F2F3
:1031E00016412046FFF792FF401C08B1012600E07F
:1031F0000026002084F81D08304670BD41542B4342
:10320000574D4F44453D25640D0A00004F4B0000CB
:1032100070B504460D4601F039FAD4F81828821A20
:1032200061F100010020D2F10202884102D284F84B
:103230001D580DE000BF01F029FAD4F81828801AB3
:1032400061F10001801E71F10001F4D384F81D5872
:10325000012070BD7FB504460D46002615B900203B
:1032600004B070BD01212046FFF7D2FF204600F0D8
:103270005CF816A1D4F82408FFF7C8FD4FF4FA61F2
:10328000204600F051FB02281BD114A204F2164183
:103290002046FFF73BFF401C90B103A8012110A27C
:1032A0000B46CDE9002102900FA204F21641204600
:1032B00000F0A6F903A8FDF78BF82870012600E0BE
:1032C0000026002084F81D083046C9E741542B43EE
:1032D000574D4F44453F0D0A000000004F4B000082
:1032E0000D0A0D0A4F4B00002B43574D4F44453AF2
:1032F0000000000038B5044669462046FFF7AAFFE3
:1033000008B9002038BD9DF80000012800D1F9E778
:1033100001212046FFF74AFF28B1204600F026FA97
:1033200008B10120EEE70020ECE70146002005E0AF
:10333000002301F216421354421C90B2B0F5806F84
:10334000F6DB0022A1F81628704700002DE9F041B5
:1033500004460E4615460027B84601212046FFF7D1
:1033600057FF2046FFF7E1FF2A4624A1D4F824089E
:10337000FFF74CFD4FF4FA6224A1204600F074FAE6
:10338000022813D121A204F216412046FFF7BEFE07
:10339000401C38B91EA204F216412046FFF7B6FEC3
:1033A000401C10B14FF0010800E00027B8F1010FF8
:1033B0001DD12046FFF7B9FFAAB23146D4F8240840
:1033C000FFF744FC4FF4FA6212A1204600F04CFAD9
:1033D00002280BD10FA204F216412046FFF796FEF9
:1033E000401C08B1012702E0002700E00027002070
:1033F00084F81D083846BDE8F081000041542B4395
:10340000495053454E443D25640D0A003E000000DE
:103410004F4B000053454E44204F4B002DE9FC47D5
:1034200004460D4616461F46DDF828804FF0000979
:1034300001212046FFF7ECFE2046FFF776FFCDE99D
:10344000007833462A4614A1D4F82408FFF7DEFC9E
:103450004FF4FA6218A1204600F006FA022814D1AF
:1034600019A204F216412046FFF750FE401C38B95D
:1034700011A204F216412046FFF748FE401C10B18D
:103480004FF0010901E04FF00009002084F81D0809
:103490004846BDE8FC87000041542B434950535433
:1034A0004152543D222573222C222573222C25645F
:1034B0002C25640D0A000000414C5245414459201E
:1034C000434F4E4E454354004F4B000010B5044649
:1034D000204600F069F810BD2DE9F04107460C4682
:1034E000384600F079FA85B2002D0ADD002605E0A5
:1034F00007F5806000F0C0FAA055761CAE42F7DBFD
:1035000002E00020207000252846BDE8F08170B55B
:1035100004460D461646324629462046FFF716FF5A
:1035200070BD00002DE9F04104460D4616461F46C9
:1035300004F502642560666039466068FFF7E6FBC3
:1035400018496068FFF7B6FB10212068FFF7E0FA22
:10355000002004F8030CA4F502642046FFF7C2FD26
:103560004FF48062214604F5806000F09AFA002052
:10357000A4F81004A4F81204A4F814042046FFF7D9
:10358000D4FE204600F0F2F880462046FFF79EFF6A
:1035900080464FF47A70002100F04DFF4046BDE8B0
:1035A000F08100007128000870B504460025012153
:1035B0002046FFF72DFE2046FFF7B7FE0DA1D4F8F9
:1035C0002408FFF723FC4FF4FA61204600F0ACF921
:1035D00002280AD109A204F216412046FFF796FDFF
:1035E000401C08B1012500E00025002084F81D08DA
:1035F000284670BD41540D0A000000004F4B0000EA
:103600002DE9FF4F80460F4691469A460F9E0020B7
:1036100003900290019003A853464A463946009011
:10362000404600F0B1F8054602A8009039464046F1
:10363000DDE90D2300F0A8F88346BDF80800BDF8C9
:103640000C10401A401B80B20190BDB1BBF1000FBD
:1036500014D0002407E0BDF80C0028442044385C56
:103660003055601C84B2BDF80800BDF80C10401A3B
:10367000401BA042EFDC0020305501E000203070FC
:10368000019804B0BDE8F08F70B504460D461646AB
:10369000324629462046FFF74FFD70BD70B50546FE
:1036A0002846FFF727FE044624B10FA11248FFF772
:1036B000ADFB03E011A11048FFF7A8FB13A10E48D2
:1036C000FFF7A4FB1E4A1F492846FFF7DDFF04460B
:1036D00024B11DA10848FFF799FB03E01EA106488D
:1036E000FFF794FB204670BD7365742073746120EE
:1036F0006F6B210D0A0000001C040020736574200C
:10370000737461206661696C210D0A00706C6561DB
:103710007320776169742C206A6F696E20776966FF
:10372000692077696C6C2074616B652061626F75CC
:1037300074203130207365636F6E64732E0D0A0040
:10374000AB030020A20300206A6F696E2061702025
:103750006F6B210D0A0000006A6F696E2061702096
:103760006661696C6564210D0A00000010B50446AD
:103770002046FFF78BFC28B12046FFF715FF08B164
:10378000012010BD0020FCE72DE9F04781460D46E1
:103790001E46089C01274FF0000C002020800023CB
:1037A0000021804605B112B90020BDE8F0872B4604
:1037B00023E0984611460EE0087898F800A050459E
:1037C00002D04FF0000C09E008F101080CF10100F3
:1037D0001FFA80FC491C08780028EDD100BF08784A
:1037E00038B9B74201D16046DFE7781C87B24FF0A5
:1037F000000C2088401C20805B1C18780028D8D141
:1038000000BFD2E770B50446D4F82408FFF72CFBBC
:10381000C5B200F03BFFC4F8180894F81D08022850
:1038200004D129460F4800F04AF970BD94F81D08EC
:10383000012812D1B4F8161804F216404554B4F811
:103840001618481CA4F81608B1F5806F02DD002098
:10385000A4F81608012084F81C082846FFF710F881
:1038600000BFE2E77C1300202DE9F04104460F463B
:10387000154600F00BFF064640E000F007FF00226F
:103880000346084611469A1B60EB01000021AA1A64
:10389000814103D2032084F81C0830E03A4604F248
:1038A00016412046FFF732FC401CB8B919A204F2B9
:1038B00016412046FFF72AFC401C78B916A204F2F4
:1038C00016412046FFF722FC401C38B914A204F22E
:1038D00016412046FFF71AFC401C78B100BF00F0EB
:1038E000D5FED4F81828821A61F10000921E70F1FA
:1038F0000000F4D3022084F81C0800E0BDE700BFFC
:1039000004F61C01204600F06FF894F81C08BDE88E
:10391000F08100004F4B00004641494C0000000080
:103920004545524F5200000070B504460D4600F068
:10393000ADFE0646002084F81C0838E000F0A6FE24
:1039400000220346084611469A1B60EB0100002145
:10395000AA1A814103D2032084F81C0828E019A286
:1039600004F216412046FFF7D1FB401C78B916A29D
:1039700004F216412046FFF7C9FB401C38B914A2D7
:1039800004F216412046FFF7C1FB401C78B100BF8E
:1039900000F07CFED4F81828821A61F10001921E12
:1039A00071F10001F4D3022084F81C0800E0C5E79F
:1039B00000BF04F61C01204600F016F894F81C081D
:1039C00070BD00004F4B00004641494C0000000014
:1039D0004545524F5200000010B5044604F5806082
:1039E00000F080F810BD000070B505460C46207848
:1039F00002281DD0207830B1012809D002280CD02F
:103A0000032814D10EE00BA10E48FFF7FFF90EE0DA
:103A10000DA10C48FFF7FAF909E00FA10948FFF7DB
:103A2000F5F904E010A10748FFF7F0F900BF00BF67
:103A300070BD0000636D642057414954494E470DE5
:103A40000A0000001C040020636D642052454345B9
:103A50004956494E470D0A00636D6420524543564E
:103A600045440D0A00000000636D642054494D4533
:103A70004F55540D0A00000010B5014608684A6809
:103A8000904201D1FF2010BD4B68CA68D05C4A68E3
:103A9000521C8B68B2FBF3F403FB14224A6000BF94
:103AA000F1E710B5002303604360C160826000BF8E
:103AB00002E00024CC545B1C9342FADB10BD30B50D
:103AC00002461068401C946890FBF4F504FB150353
:103AD00000BF50689842FCD01468D068015513604C
:103AE000012030BD01460A68886810444A68801A7F
:103AF0008A6890FBF2F302FB13007047002101601B
:103B000041607047416002607047016082604360BD
:103B1000704700000021024A118051809180704757
:103B20005409002070B504460D4600262946206839
:103B3000FFF7D2FC0646304670BD2DE9F041044641
:103B40000E4615462A4631462068FFF7E0FC074638
:103B500007B900252846BDE8F081014601207047DD
:103B60002DE9F04104460E4617461D46B5F5E15FC6
:103B700001D34FF4E1552B463A4631462068FFF712
:103B800075FABDE8F08101607047490050EAC12034
:103B900018BF04204A0D18BF40F0010040F2FF7228
:103BA000B2EB515F08BF40F00200012808BF0520BA
:103BB0007047000008B50122FD49FE48FFF706F8EE
:103BC0000222FB49FC48FFF701F80422F849FB48B0
:103BD000FEF7FCFF0822F649F948FEF7F7FF10222E
:103BE000F349F848FEF7F2FF2022F149F648FEF7C4
:103BF000EDFF4022EE49F548FEF7E8FF8022EC4950
:103C0000F348FEF7E3FF4FF48072E949F148FEF70D
:103C1000DDFF4FF40072E649EF48FEF7D7FF4FF49F
:103C20008062E349ED48FEF7D1FF4FF40062E049BE
:103C3000EB48FEF7CBFF4FF48052DD49E948FEF731
:103C4000C5FF4FF40052DA49E748FEF7BFFF4FF4D3
:103C50008042D749E548FEF7B9FF4FF40042D44906
:103C6000E348FEF7B3FF0122E249E348FEF7AEFF67
:103C70000222E049E148FEF7A9FF0422DD49E048BD
:103C8000FEF7A4FF0822DB49DE48FEF79FFF102263
:103C9000D849DD48FEF79AFF2022D649DB48FEF7D7
:103CA00095FF4022D349DA48FEF790FF8022D149A0
:103CB000D848FEF78BFF4FF48072CE49D648FEF706
:103CC00085FF4FF40072CB49D448FEF77FFF4FF4D5
:103CD0008062C849D248FEF779FF4FF40062C549B7
:103CE000D048FEF773FF4FF48052C249CE48FEF72A
:103CF0006DFF4FF40052BF49CC48FEF767FF4FF409
:103D00008042BC49CA48FEF761FF4FF40042B949FE
:103D1000C848FEF75BFF0122C749C848FEF756FFB7
:103D20000222C549C648FEF751FF0422C249C548D0
:103D3000FEF74CFF0822C049C348FEF747FF102298
:103D4000BD49C248FEF742FF2022BB49C048FEF7EA
:103D50003DFF4022B849BF48FEF738FF8022B649F0
:103D6000BD48FEF733FF4FF48072B349BB48FEF7FE
:103D70002DFF4FF40072B049B948FEF727FF4FF40A
:103D80008062AD49B748FEF721FF4FF40062AA49AF
:103D9000B548FEF71BFF4FF48052A749B348FEF722
:103DA00015FF4FF40052A449B148FEF70FFF4FF43E
:103DB0008042A149AF48FEF709FF4FF400429E49F7
:103DC000AD48FEF703FF0122AC49AD48FEF7FEFE09
:103DD0000222AA49AB48FEF7F9FE0422A749AA48E5
:103DE000FEF7F4FE0822A549A848FEF7EFFE1022D0
:103DF000A249A748FEF7EAFE2022A049A548FEF7FF
:103E0000E5FE40229D49A448FEF7E0FE80229B4942
:103E1000A248FEF7DBFE4FF480729849A048FEF7F7
:103E2000D5FE4FF4007295499E48FEF7CFFE4FF441
:103E3000806292499C48FEF7C9FE4FF400628F49A8
:103E40009A48FEF7C3FE4FF480528C499848FEF71B
:103E5000BDFE4FF4005289499648FEF7B7FE4FF475
:103E6000804286499448FEF7B1FE4FF400428349F0
:103E70009248FEF7ABFE012291499248FEF7A6FE5A
:103E800002228F499048FEF7A1FE04228C498F48F8
:103E9000FEF79CFE08228A498D48FEF797FE102205
:103EA00087498C48FEF792FE202285498A48FEF712
:103EB0008DFE402282498948FEF788FE8022804993
:103EC0008748FEF783FE4FF480727D498548FEF7F0
:103ED0007DFE4FF400727A498348FEF777FE4FF477
:103EE000806277498148FEF771FE4FF400627449A1
:103EF0007F48FEF76BFE4FF4805271497D48FEF714
:103F000065FE4FF400526E497B48FEF75FFE4FF4AA
:103F100080426B497948FEF759FE4FF400426849E8
:103F20007748FEF753FE012276497748FEF74EFEAA
:103F3000022274497548FEF749FE0422714974480B
:103F4000FEF744FE08226F497248FEF73FFE10223A
:103F50006C497148FEF73AFE20226A496F48FEF725
:103F600035FE402267496E48FEF730FE80226549E3
:103F70006C48FEF72BFE4FF4807262496A48FEF7E8
:103F800025FE4FF400725F496848FEF71FFE4FF4AC
:103F900080625C496648FEF719FE4FF40062594999
:103FA0006448FEF713FE4FF4805256496248C5E05C
:103FB00000080140140000201C0000202400002004
:103FC0002C000020340000203C0000204400002091
:103FD0004C000020540000205C0000206400002001
:103FE0006C000020740000207C0000208400002071
:103FF0008C000020000C0140940000209C00002058
:10400000A4000020AC000020B4000020BC00002070
:10401000C4000020CC000020D4000020DC000020E0
:10402000E4000020EC000020F4000020FC00002050
:10403000040100200C0100200010014014010020A8
:104040001C010020240100202C010020340100204C
:104050003C010020440100204C01002054010020BC
:104060005C010020640100206C010020740100202C
:104070007C010020840100208C01002000140140FC
:10408000940100209C010020A4010020AC0100202C
:10409000B4010020BC010020C4010020CC0100209C
:1040A000D4010020DC010020E4010020EC0100200C
:1040B000F4010020FC010020040200200C0200207A
:1040C00000180140140200201C02002024020020DD
:1040D0002C020020340200203C0200204402002078
:1040E0004C020020540200205C02002064020020E8
:1040F0006C020020740200207C0200208402002058
:104100008C020020001C0140940200209C02002030
:10411000A4020020AC020020B4020020BC02002057
:10412000C4020020CC020020D4020020DC020020C7
:10413000E4020020EC020020F4020020FEF746FD1D
:104140004FF4005262496348FEF740FD4FF480424D
:104150005F496148FEF73AFD4FF400425C495F4811
:10416000FEF734FD01225E495E48FEF72FFD022274
:104170005B495D48FEF72AFD042259495B48FEF77A
:1041800025FD082256495A48FEF720FD10225449C1
:104190005848FEF71BFD202251495748FEF716FDEF
:1041A00040224F495548FEF711FD80224C495448A2
:1041B000FEF70CFD4FF4807249495248FEF706FDA8
:1041C0004FF4007246495048FEF700FD4FF48062FC
:1041D00043494E48FEF7FAFC4FF4006240494C4810
:1041E000FEF7F4FC4FF480523D494A48FEF7EEFCDE
:1041F0004FF400523A494848FEF7E8FC4FF4804239
:1042000037494648FEF7E2FC4FF40042344944483F
:10421000FEF7DCFC434B444A44494548FEF702FFA5
:10422000444B454A45494648FEF7FCFE454B464A45
:1042300046494748FEF7F6FE464B474A4749484835
:10424000FEF7F0FE474B484A48494948FEF7EAFE68
:104250004848494B494A4A4900904A48FEF739FCC8
:1042600049484A4B4A4A4B4900904B48FEF731FCBB
:104270004A484B4B4B4A4C4900904C48FEF729FCAE
:104280003C4B3D4A3D494A48FFF73FFC494B4A4AAF
:104290004A494B48FEF716FC2A4B2B4A49494A48E3
:1042A000FEF710FC354A49494948FFF72BFC414AC3
:1042B00041494848FFF726FC224A23494648FFF770
:1042C00021FC464B464A47494748FEF7F7FB08BDE5
:1042D000001C0140FC020020040300200C0300200D
:1042E00000200140140300201C03002024030020B0
:1042F0002C030020340300203C0300204403002052
:104300004C030020540300205C03002064030020C1
:104310006C030020740300207C0300208403002031
:104320008C030020640000205C0000200038014065
:104330001C0400202C000020240000200044004029
:10434000A4040020EC000020E4000020004800400D
:104350002C0500206C01002064010020004C00406E
:10436000B4050020A401002074010020005000408A
:104370003C0600204C000020440000203C000020AF
:1043800000300140C40600200C0100200401002080
:10439000FC00002000380040D0060020BC000020B7
:1043A000B4000020AC000020003C0040DC060020EF
:1043B000E8060020CC000020C4000020005400408B
:1043C000FC060020005800401007002034000020A8
:1043D0002407002034070020440700207400002038
:1043E0006C000020006400405407002010B5044C0D
:1043F00004F58060FFF782FBA0F5806410BD00002B
:104400007C0F002000B50248FFF784FB00BD0000D0
:104410009403002010B502490248FFF7B4FB10BD19
:104420007C0F0020C003002030380A2801D2012070
:104430007047002070472DE9F04104460D4600F01A
:10444000F7F84FF47A734FF0000CA4FB032805FB38
:10445000038304FB0C3382185941D61E61EB0C0711
:1044600000BF00F0E5F8801BB941FAD3BDE8F08148
:1044700070B542F22831B1F1807F00D31DE021F008
:104480007F40401E4FF0E022506150170F2200285D
:1044900007DA13071D0E264B00F00F04241F1D55CD
:1044A00003E013071C0E234B1C5400BF00204FF0E9
:1044B000E02290610720106100BF6FF00400FDF75B
:1044C0002BFF00201C49086000211C4A116051602C
:1044D00000BF19480068401C174908601748026867
:1044E00040686421511A70F10000F2D3124800684C
:1044F00000EB8000400010490860FEF7C1FA4FF45D
:10450000A060FDF7D5FD01210846FDF707FE01215A
:104510000B48FDF74DFD0B48FEF796FD4FF47A7002
:1045200000F0BEF808490888FEF7DEF870BD00000C
:1045300018ED00E000E400E000040020F803002093
:1045400000023000CC1B0020DC1B0020FEF74CFAE0
:10455000214803882148028821492248FFF700FBAF
:10456000044624B120A12448FEF750FC03E023A117
:104570002148FEF74BFC2EE025491A48FFF7D2FAF6
:10458000244908800846008828B108460288204946
:104590001948FEF75BFB2048006870B91B221F49D1
:1045A0001048FFF7CAFA08B1012000E000200446D5
:1045B0001CB11BA11048FEF729FC17480068401CDD
:1045C00015490860084600681849B0FBF1F201FB84
:1045D000120011490860CFE7D4030020D203002065
:1045E000C4030020C0030020636F6E6E65637420F7
:1045F0006F6B210D0A0000001C040020636F6E6EBB
:10460000656374206661696C6564210D0A000000B1
:10461000A4170020F2030020F4030020D60300209A
:1046200073656E64206F6B210D0A000020A10700E6
:10463000F0B54FF0E020006900F4803060B100BFB9
:10464000EFF3108040B1104802684068521C40F1FE
:1046500000000D490A6048604FF0E02080690921A0
:10466000B0FBF1F042F22831081A0021064A136823
:1046700054684FF47A75A3FB052704FB057403FB0C
:10468000014380185941F0BDF803002070B5FFF7D1
:10469000CFFF04464FF47A720023FBF70FFE70BD84
:1046A0004FF47A7191FBF0F1024A118002490880BF
:1046B000704700000A0400200804002010B50029FB
:1046C0000AD00878002807D005487844FCF7F8FDA0
:1046D000002801D0002010BD0248784410BD000021
:1046E000460100003E01000010B500290AD00878FC
:1046F000002807D005487844FCF7E2FD002801D0E7
:10470000002010BD0248784410BD00002A020000BD
:1047100022020000FCF70FBB0000000000000000B8
:1047200030313233343536373839414243444546E7
:1047300040305800303132333435363738396162E1
:1047400063646566403078000400000800000000E3
:104750000000000200010000100000000240000004
:10476000000000A00000000005400000000000C89C
:10477000000000000C4000000000409C0000000011
:10478000194000000020BCBE0000000034400000C2
:10479000BFC91B8E00000004B5400000504BCFD0B5
:1047A0006607E2CF010000006C4100003E8251AA82
:1047B000DFEEA73401000000D9420000DCB5A0E222
:1047C0003A301F97FFFFFFFFB4450000FD25A0C84A
:1047D000E9A3C14FFFFFFFFFFF3F00000000008083
:1047E00000000000FF3F000000000080000000000B
:1047F0004C490008000000201C04000028010008AB
:10480000A84900081C040020241F0000840100089F
:104810001001000043000000F8FFFFFF004040408F
:104820004040404040404141414141404040404083
:10483000404040404040404040404040400502022F
:1048400002020202020202020202020202202020EE
:10485000202020202020200202020202020290904A
:104860009090909010101010101010101010101048
:10487000101010101010101002020202020288889C
:1048800088888888080808080808080808080808A8
:104890000808080808080808020202024000000090
:1048A0000000000000000000000000000000000008
:1048B00000000000000000000000000000000000F8
:1048C00000000000000000000000000000000000E8
:1048D00000000000000000000000000000000000D8
:1048E00000000000000000000000000000000000C8
:1048F00000000000000000000000000000000000B8
:1049000000000000000000000000000000000000A7
:104910000000000000000000000000000000000097
:104920001C00000043000000F8FFFFFF0C00000027
:104930000E0000000F0000002E00000079F2FFFFC3
:10494000C5FAFFFFA9FAFFFFCDFAFFFF412D0102D3
:104950000304040009FF060708090204060801FF12
:1049600001FF0190100A7E64766D6173746572694F
:104970000914343536C201100E3139322E31363831
:104980002E302E313033180A901FE110746869738D
:10499000200300132C61207463702073656E642003
:0849A00074657374210D0A0017
:04000005080000ED02
:00000001FF
